:100000000C94BF000C9406010C9406010C9406019C
:100010000C9406010C9406010C9406010C94060144
:100020000C9406010C9406010C94F3190C94C61A56
:100030000C9477150C9406010C9406010C9406019F
:100040000C9406010C9406010C9406010C94060114
:100050000C9406010C9409160C9406010C940601EC
:100060000C9406010C9406010C9406010C940601F4
:100070000C9406010C9406010C9406010C940601E4
:100080000C9406010C9406010C9406010C940601D4
:100090000C9406010C9406010C9406010C940601C4
:1000A0000C9406010C9406010C9406015600000005
:1000B0004C001901060100005D005C005B005A0065
:1000C00059000000610060005F005E006200630094
:1000D000000000002A002C0028002B0063005600BE
:1000E000000016036C006500660074006E00750069
:1000F0006D0070006100640000000A0372006F0070
:1001000065006C00000004030904090222000101DB
:1001100000A0FA09040000010301010009211101F6
:1001200000012240000705810308000A12011001A6
:1001300000000008EDFE6060010001020001050101
:100140000906A101050719E029E715002501950811
:10015000750181029501750881010507190029FFC4
:10016000150026FF0095067508810005081901296C
:1001700005950575019102950175039101C0112442
:100180001FBECFEFDAE0DEBFCDBF04B603FE27C04F
:100190008091DA019091DB01A091DC01B091DD0149
:1001A0008730904BA740B04BD1F41092DA011092F7
:1001B000DB011092DC011092DD0114BE84B7877F51
:1001C00084BF0FB6F894A8958091600088618093F1
:1001D0006000109260000FBEE0E0F8E3099511E0C6
:1001E000A0E0B1E0E4EDF9E302C005900D92AE317C
:1001F000B107D9F721E0AEE1B1E001C01D92AA3DFF
:10020000B207E1F70E9448170C94C31C0C9400003D
:10021000FB01828181111092240181E00895892BD4
:1002200079F4662369F081E0809324010E94B3157C
:100230006093200170932101809322019093230108
:100240000895CF93DF9300D000D0CDB7DEB7809173
:1002500024018823F9F08091200190912101A0913F
:100260002201B0912301BC01CD010E94E215613C45
:10027000744D8140910570F088E690E00E94A501E0
:100280000E94B31560932001709321018093220195
:10029000909323010F900F900F900F90DF91CF91CB
:1002A00008959C01FB019A9581159F4118F5D9018C
:1002B000AA27B270832F8170B90166277470A901D3
:1002C0004427587034FF0CC08295807FAB2B09F017
:1002D0008062672B09F08064452B09F080680994DF
:1002E000AB2B09F08260672B09F08460452BB9F3D2
:1002F0008860F5CF0895CF93DF93EC01805E91097C
:10030000089720F06EE67DE0209711F46EEE7AE01B
:10031000CE010E9451018C2FDF91CF910C94100AD5
:10032000CF93DF93EC010E94800ACE01805E910999
:10033000089720F065E77DE0209711F465EF7AE0FB
:10034000CE01DF91CF910C945101CF93DF93D82F41
:10035000C92F0E947B018D2F9C2FDF91CF910C9490
:10036000900181E008950C94080108950C94B50162
:100370001F93CF93DF9300D000D00F92CDB7DEB79D
:1003800049835A836B833091560189819A81311157
:100390001DC06623B9F02223A9F00E94A912182FCC
:1003A000682F89819A810E94521269817A81812FF6
:1003B0000F900F900F900F900F90DF91CF911F91A2
:1003C0000C9480020E948012182FEFCF0E94A91275
:1003D00069817A81EDCFFC01262F408151816281B4
:1003E000738184810C94B801CF93DF93D82FC92FE8
:1003F00060E00E94EB016D2F7C2FDF91CF910C9478
:10040000B6010E9463040C949C040E948A070C9419
:100410009E0408950E94860D0E9409022FEF84E336
:100420009CE0215080409040E1F700C000000C9417
:100430002D160F931F93CF93DF938C0161E00E94E1
:10044000EB01EC01B8010E94B3018823D9F1B80196
:10045000CE010E94B7078823A9F1B801CE010E94FE
:100460001606882379F1B801CE010E946B06882315
:1004700049F1B801CE010E944307882319F1F80120
:100480008281882361F0CB35FDE5DF0721F170F42F
:10049000C115ECE5DE07A1F0CF3DDC45C9F0C80190
:1004A000DF91CF911F910F910C94B101CC358DE567
:1004B000D807A1F0CD35DD4591F70E945813EFCF55
:1004C0000E940A0280E0DF91CF911F910F91089561
:1004D0000E94C614F7CF0E946113E1CF0E946413FB
:1004E000DECF08950C94710281E008950C9474029B
:1004F000CF93C82F0E9472028C2FCF910C9476025A
:10050000972F70E026E0929F600D711D1124FB0172
:1005100098E1899FE00DF11D1124EE0FFF1FE455B6
:10052000FF4F859194910895CF93DF930E948002AD
:100530000E947003EC01811523E59207E0F5811517
:1005400032E5930708F0A2C0C11580E2D807E8F4AD
:10055000CF3FD10509F068F4C53AD10570F4C43035
:10056000D10538F481E0219709F080E0C82F20E020
:10057000D22FCE01DF91CF910895CE01805E9109F7
:100580000897B8F3D0E0C0E0F4CFC11531E5D30748
:1005900068F4C11580E5D80708F05BC0CE0190541F
:1005A0008115904178F7DF70D06AE3CFDC2FCC273C
:1005B000C16FD06ADECF811539E59307A0F5C1156B
:1005C00088E5D80708F07AC0C11525E5D207C8F438
:1005D000C11534E5D30708F06CC09E0123703327A2
:1005E00081E090E002C0880F991F2A95E2F7C69536
:1005F000C69520E2C29FE0011124C82BD92BDA68EE
:10060000B8CFCE0195558F3F910511F008F0BACFC4
:100610008C2F0E940804C82FD0E0DC2FCC27CC27D9
:10062000DF71D062A6CF81153AE5930708F44BC07D
:1006300090568115904208F0A5CF8D2F8F710E94A2
:10064000080490E0982F882788279F718C2BEC0155
:10065000E8CF9E0174E0369527957A95E1F72370EF
:100660008C2F86958695837030E2839FC00111247C
:10067000922BC37021E030E002C0220F331FCA95D5
:10068000E2F7822B932BEC01DC6873CF9C01237083
:10069000332781E090E002C0880F991F2A95E2F786
:1006A000C695C69520E2C29FE0011124C82BD92B24
:1006B000EBCFDC2FCC27C46FD06A5BCFDC2FCC27ED
:1006C000C06FD06A56CF8F700E94080434E0D69570
:1006D000C7953A95E1F7CF709C2FEC01D06949CFCF
:1006E000803E910599F1C8F48133910509F476C0F3
:1006F00048F48932910509F46AC08A32910509F4F7
:1007000074C0089589339105D1F082389105B9F00C
:100710008533910509F454C00895843E910599F1FB
:1007200038F4823E9105F9F0833E910509F1089570
:10073000863E910599F1873E9105B9F10895209182
:10074000BF012370A1F080EE90E008952091BF01D9
:1007500020FD52C03091C00130FF09C024FF4FC0BE
:1007600090E080E004C02091BF0122FDF7CF089502
:100770002091BF0122FD46C03091C00130FDE3CF82
:1007800024FFF5CFEDCF2091C00121FFF0CF809164
:10079000BF0184FDE5CF87EE90E008952091BF0171
:1007A00023FFE5CF24FDDCCFF6CF2091BF0123FD51
:1007B0002CC03091C00131FFE3CF84EE90E008956A
:1007C0002091BF0125FFD3CF89E290E008952091C9
:1007D000BF0125FFCCCF85E390E008952091BF01B4
:1007E00026FFC5CF8AE290E008952091BF0126FF41
:1007F000BECF81E390E0089589E390E0089583EE11
:1008000090E0089582EE90E0089586EE90E00895DD
:100810009091BF0192FF06C0282F28712830F9F46B
:10082000877F846093FF06C0282F28712831F1F458
:10083000877E84612091C00120FF06C0382F387167
:100840003830D9F4877F816021FF06C0282F2871B6
:100850002831D1F4877E816194FD877E0895282F09
:1008600024712430F9F68B7F8860DCCF282F247127
:10087000243101F78B7E8861DDCF382F3171313023
:1008800019F78E7F8860E0CF282F2171213121F761
:100890008E7E8861E1CF0C941B140E94FC048FE3D0
:1008A0009CE90197F1F700C000000E94FC0480E081
:1008B0000E94A00480FF04C00E944B040C942D16DB
:1008C00008950C944D04CF93DF9300D000D0CDB7A2
:1008D000DEB70E942114811102C00E94C6140E943A
:1008E0002C148093B3010E9434149093C001809320
:1008F000BF010E9461040E943014282F30E050E0B4
:1009000040E0CA01B9010E948E1080919E01909131
:100910009F01A091A001B091A10189839A83AB832B
:10092000BC83BC01CD010F900F900F900F90DF9111
:10093000CF910C940A1108950C949B040C942101FE
:10094000E82FF0E0EB53FE4F80810895089580EA90
:100950008A95F1F7089500C008950C94A704F894BF
:10096000E82FE295EF70F0E041A18F7021E030E0D8
:10097000B90102C0660F771F8A95E2F7CB01962F67
:100980009095942391A392A1892B82A378940895A2
:1009900085EF0E94AF0484EF0E94AF0482E30E94BF
:1009A000AF0486E30E94AF0487EF0E94AF0483E3A5
:1009B0000E94AF0486EF0E94AF0481E30E94AF045F
:1009C00084E30E94AF0485E30E94AF04A1ECB1E090
:1009D0001C92E5ECF1E0108211961C9211971182A5
:1009E00012961C921297128213961C92138284E024
:1009F0000E9473050C940102CF92DF92EF92FF9256
:100A00000F931F93CF93DF93C9E1D1E001EC11E085
:100A1000D12CEE24E394F12C8991F894E82FE295FF
:100A2000EF70F0E021A18F70A70102C0440F551FA5
:100A30008A95E2F7CA01922F982B91A392A18095F3
:100A4000892382A378940E94AB04A3E1B1E030E053
:100A500020E0C12C4D91E42FE295EF70E05EF0E0D4
:100A6000808190E04F7002C0959587954A95E2F796
:100A700080FD35C08E2D022E01C0880F0A94EAF742
:100A8000C82A2F5F3F4F2630310521F7FE013197ED
:100A900080810E94AF040E94AD04F8018081C816D5
:100AA00001F1C08281E0D82A0F5F1F4FF1E0CD3104
:100AB000DF0709F0B1CF2D2D44E065EC71E081EC4A
:100AC00091E00E9474050E9405028D2DDF91CF9167
:100AD0001F910F91FF90EF90DF90CF90089580E0ED
:100AE000CFCF80E0E0CF0895FF920F931F93CF9375
:100AF000DF93F82E092F162FD72FC42F222349F06A
:100B000081E0809327010E94A7159093260180938E
:100B10002501809127018823A1F0809125019091E2
:100B200026010E94D315069760F0EF2DF02FA12F1C
:100B3000BD2FCF018C0F911DE817F90741F41092DA
:100B40002701DF91CF911F910F91FF90089521917F
:100B50002D93F2CF0F931F93CF93DF93C42FD22FF8
:100B6000FC0182818823C9F040932A010E94A715C5
:100B7000909329018093280180E28C0F883008F03F
:100B800050C0C77081E001C0880FCA95EAF7DF91B5
:100B9000CF911F910F910C94EE0A10912A0114131A
:100BA00035C080912801909129010E94D315883C7D
:100BB000910560F5C0E2CD0F1D17B9F080E2810FFD
:100BC000883040F4177081E001C0880F1A95EAF769
:100BD0000E94F50AC83048F481E09D2F977001C04B
:100BE000880F9A95EAF70E94EE0A802F0E94E60A83
:100BF000C830B8F4D77081E001C0880FDA95EAF701
:100C0000DF91CF911F910F910C94F50A80E28C0F28
:100C1000883038F4C77081E001C0880FCA95EAF7C0
:100C2000EFCFDF91CF911F910F9108950F939C010A
:100C3000CB01243F4CE53407A1F190F4293DFCE5BC
:100C40003F0749F12A3D4CE53407E9F1283D3C4591
:100C5000C1F0FC0182818823E1F110922A0119C0C0
:100C6000263FFCE53F0719F1273F4CE5340729F102
:100C7000253F3C4571F707E225EE44EE65EF7CE544
:100C800005C006E221EE41EE68ED7CE50E94AA0572
:100C900080E00F91089507E225EE45EE69ED7CE5D1
:100CA000F5CF06E221EE40EE64EF7CE5EFCF06E201
:100CB00021EE42EE66EF7CE5E9CF07E225EE46EE57
:100CC00067EF7CE5E3CF08E221E045EE6AED7CE5E5
:100CD000DDCF81E0DECFCF93DF93EC01FB0182819A
:100CE000882309F4CEC0C631FCE5DF07E0F4C2304A
:100CF0009CE5D907F0F00E9434149093C0018093D2
:100D0000BF01C631ECE5DE0720F5C230FCE5DF07A8
:100D100098F48091BF019091C0010E9442140E94FA
:100D2000860D80E006C09E012B5F3C4529303105D1
:100D300010F3DF91CF910895FE01E350FC458091BF
:100D4000BF018160E331F105B0F4EB53F34E0C9435
:100D50007B1CCE018B5F9C450997D8F6FE01EC5FAA
:100D6000FC45E830F10590F4E852F34E0C947B1CFE
:100D70008091BF0182608093BF01CBCF8091BF0182
:100D80008460F9CF8091BF018860F5CF8091C00168
:100D900081608093C001BDCF8091C0018260F9CF96
:100DA0008091BF018061E7CF8091BF018062E3CF76
:100DB0008091BF018064DFCF0E94860D8091BF01CA
:100DC0008068D9CF8091BF018C60D5CF8091C00160
:100DD0008360DFCF8091BF018E7FCDCF8091BF0137
:100DE0008D7FC9CF8091BF018B7FC5CF8091BF011F
:100DF000877FC1CF8091C0018E7FCBCF8091C00112
:100E00008D7FC7CF8091BF018F7EB5CF8091BF010D
:100E10008F7DB1CF8091BF018F7BADCF0E94860DBA
:100E20008091BF018F77A7CF8091BF01837FA3CF30
:100E30008091C0018C7FADCF8091BF0182FB99274B
:100E400090F921E0922790FB82F990FB83F993CFF0
:100E50008091C001982F909591708E7F892B90FB87
:100E600081F997CF0E94860D9091BF01892F97FB42
:100E700087F9805880CF81E00E94C8144ACF80E073
:100E8000FBCF81E056CFCF93DF93EB0186319C45BA
:100E900011F50E9467139A81992399F08A7A91E05B
:100EA00009F490E090932B01811109C089E20E941E
:100EB00021130E94AC1380E0DF91CF91089585E368
:100EC000F6CF80912B01811104C089E20E94281382
:100ED000F0CF85E3FBCF81E0EFCFCF9390913C0142
:100EE0009923B1F0882391F0C0E0EC2FF0E0EE0FF1
:100EF000FF1FE45DFE4F808191810E947B010E9473
:100F0000AC13CF5F80913C01C81778F310923C017D
:100F1000CF910895809105018823A1F080913D0132
:100F2000882381F08091410190914201009751F016
:100F30000E94D3158F35914028F010923D0181E039
:100F40000C946D07089510923D01109205011092C6
:100F500042011092410181E00C946D0780910501DE
:100F600081110C94A30781E08093050108958F926D
:100F70009F92AF92BF92CF92DF92EF92FF920F9328
:100F80001F93CF93DF938C017B0110923E01883F2A
:100F90004CE59407A9F4FB01C281CC2331F181E037
:100FA000809305018C2FDF91CF911F910F91FF90BE
:100FB000EF90DF90CF90BF90AF909F908F9008956B
:100FC000893FFCE59F0739F4FB01C281CC2369F01E
:100FD0000E94A307E7CF8A3F9C4539F4FB01C281F9
:100FE000CC2319F00E94AE07DDCFD0910501C1E0FE
:100FF000DD23C1F21092400110923F01C0E0CC24E9
:10100000C394D12C99249394809100019091010173
:101010003FEF20E0E22FF0E0EE0FFF1FE80FF91F97
:10102000459154910417150709F4322F452B11F0FF
:101030002F5FF0CF3F3F31F5812CC829DD2321F010
:10104000D1E0809104018111D0E0D17080913F0105
:101050009091400101969093400180933F01892B2C
:1010600099F280913E01882309F45FC00E94A71580
:10107000909342018093410180E00E946D0781E0DE
:10108000C82790CF80903D01F701928180910401A3
:10109000560101C0AA0C3A95EAF7992319F18A2959
:1010A00080930401882041F2A60102C0440F551F1D
:1010B0002A95E2F79A01215031098217130609F0A7
:1010C000BCCF8091020190910301009729F00E940A
:1010D0007B0190923E01B1CF61E090E080E00E9400
:1010E0000F01F7CFF60102C0EE0FFF1F2A95E2F7BE
:1010F0009F01215031098217130649F480910201A2
:1011000090910301009759F00E949001982DA094AE
:10111000809104018A2180930401892E8ECF60E0A2
:1011200090E080E00E940F01F1CFC1110EC081E07C
:101130000E946D07DD2309F4A2CF109242011092A4
:10114000410181E080933D019ACFF701828188239C
:1011500009F495CF80913D01882309F490CF0E9436
:10116000A7159093420180934101E0913C01E83042
:1011700008F085CF81E08E0F80933C01F0E0EE0F08
:10118000FF1FE45DFE4F1183008379CF90934801E8
:10119000809347010895E0914701F091480130970D
:1011A00021F00190F081E02D099480E00895E09114
:1011B0004701F0914801309721F00280F381E02D42
:1011C0000994089520914501309146012817390767
:1011D00071F09093460180934501E0914701F091B1
:1011E0004801309721F00680F781E02D0994089599
:1011F00020914301309144012817390771F09093F1
:10120000440180934301E0914701F09148013097F8
:1012100021F00084F185E02D099408950E94B31512
:101220006093520170935301809354019093550140
:1012300060934E0170934F01809350019093510140
:10124000089585B7806885BF85B7806885BF089594
:10125000089508950C94280908950C942C090E946F
:10126000210989E194E10E943E160E9429090C940B
:101270002A0981E008950C943909089508950E947F
:101280003D090C943E090E949E150E94C8040C94CE
:101290002D09AF92BF92CF92DF92EF92FF920F9300
:1012A0001F93CF93DF9300D000D00F92CDB7DEB75E
:1012B0000E94FC0481110E940E098AE4A82E81E09C
:1012C000B82E10E000E0C02E802F0E94A004F82E5F
:1012D000F501E1905F01E81609F44AC08091B3017D
:1012E00081FD0E94A6048E2D8F25D12CEE24E3943F
:1012F000982F9E21C1F10E943B09882399F0D98241
:10130000CA82FE2081E009F480E08B830E94A71549
:101310008160782F9D838C8349815A816B81892FCD
:101320000E94DF09F801E65BFE4F80818E258083F5
:101330000E94CB0890914901891789F10E94CB083E
:10134000809349010F900F900F900F900F90DF91B5
:10135000CF911F910F91FF90EF90DF90CF90BF90B2
:10136000AF900C947802D394EE0CF6E0DF12C0CF6D
:101370000F5F1F4F0430110509F0A5CF8FEF898350
:101380008A831B820E94A7158160782F9D838C839E
:1013900049815A816B81892F0E94DF09C9CF0F9043
:1013A0000F900F900F900F90DF91CF911F910F91A1
:1013B000FF90EF90DF90CF90BF90AF900895CF93C4
:1013C000DF93CDB7DEB72B970FB6F894DEBF0FBE15
:1013D000CDBF4F83588769877A878B8761110E94B9
:1013E00089131E8285E0FE013796DE011196019079
:1013F0000D928A95E1F749815A816B817C818D81BB
:101400009E812B960FB6F894DEBF0FBECDBFDF9145
:10141000CF910C94E40FFC01808191810C94EB122C
:10142000CF93C82F882309F469C08238C1F40E9481
:10143000CB0881FD63C089E30E9421130E94AC1395
:101440002FEF81EE94E0215080409040E1F700C002
:10145000000089E30E942813CF910C94AC138338C9
:10146000A1F40E94CB0880FD49C083E50E942113AE
:101470000E94AC132FEF81EE94E021508040904009
:10148000E1F700C0000083E5E5CF8438A1F40E94B5
:10149000CB0882FD33C087E40E9421130E94AC1365
:1014A0002FEF81EE94E0215080409040E1F700C0A2
:1014B000000087E4CFCF8CEF8C0F813A90F46C2F33
:1014C00080910601909107010E94DF14882329F082
:1014D0008C2F0E9428130E94AC138C2F0E94211382
:1014E000BBCF80E28C0F883048F4C77081E001C028
:1014F000880FCA95EAF70E946A13AECFCF9108957C
:10150000882309F44BC0823871F40E94CB0881FF14
:1015100045C089E30E9421130E94AC1389E30E9415
:1015200028130C94AC13833859F40E94CB0880FF25
:1015300035C083E50E9421130E94AC1383E5EFCFF1
:10154000843859F40E94CB0882FF28C087E40E94A7
:1015500021130E94AC1387E4E2CF9CEF980F913ADD
:10156000F0F290E2980F983050F4877091E001C04B
:10157000990F8A95EAF7892F0E947013D2CF9BE5C5
:10158000980F933020F490E080E00C94E208885AA1
:10159000873120F490E080E00C94F80808951F93C0
:1015A000CF93DF93182FEB010E94100A209731F49C
:1015B000812FDF91CF911F910C94800A8FE99FE0DA
:1015C0000197F1F700C000002197F0CF70E060E0D4
:1015D000893311F460E570E00C94CF0A882321F080
:1015E0000E946A130C94AC130895882321F00E9482
:1015F00070130C94AC130895BF92CF92DF92EF92C8
:10160000FF920F931F93CF93DF9300D000D00F92E0
:10161000CDB7DEB76C016D837983FC010281158142
:1016200012951F700E943F13E82E8823A1F0E02E30
:10163000002389F08981807F803429F08D81805E4C
:10164000E12C883040F082E00E94FD130E943F139D
:1016500091E0E82EE926B980B2949FE0B922F8E043
:10166000BF1609F4D5C0FB15A8F121E02B1508F031
:1016700044C08EE08B0D8F70823008F474C0EB2D67
:10168000E850FF0B349720F40E94CB080E947802A8
:10169000EE2009F4D5C10E943B1380FDD1C1F601B3
:1016A00012820E9435130E944211C6010E94460D0B
:1016B0000E9435130F900F900F900F900F90DF91B5
:1016C000CF911F910F91FF90EF90DF90CF90BF903F
:1016D0000C94731139E0B31609F446C186E08B0D02
:1016E0008F70823060F68D81823F09F04EC1898112
:1016F0008F71002309F47CC145C119811F70998144
:10170000907F11F01295107F0023B1F0112361F04A
:101710008D81805E883018F00D81011109C0812F04
:101720000E946A130E94AC138D810E94100AA7CFF9
:10173000812F0E947B13F6CF8D810E94800A112396
:1017400009F49DCF8D81805E883018F00D810111E4
:1017500006C0812F0E9470130E94AC1390CF812F7E
:101760000E948113F9CF29812F70F22E3981307FA9
:10177000303219F0F29480EFF8228D81882369F0DD
:10178000813049F1002391F1112351F1F601858156
:1017900080FFCACF8F70858323C0002381F0111191
:1017A00006C00E948F138F290E94EE0A68CF113065
:1017B000C1F70E948F138F290E94951360CF1111DA
:1017C00006C00E94A2138F2D0E94F50A58CF113037
:1017D00009F455CFF6CF002329F0163008F04FCF8B
:1017E0008F2DE2CF153008F04ACFEDCF112359F3FA
:1017F0000D81093349F41FEF27EE33E011502040EB
:101800003040E1F700C000008D810E94800A37CF90
:101810008981837009F050C0011131CF2D8122954B
:1018200026952770220F220F4D814F7050E070E0F7
:1018300060E0022E04C0440F551F661F771F0A94F4
:10184000D2F70D8180E090E0DC0104FF0FC08FE053
:1018500090E0A0E0B0E004C0880F991FAA1FBB1F52
:101860002A95D2F780959095A095B09519811695F7
:10187000169513701D838C019D01042B152B262BAF
:10188000372B09831A832B833C831D8169817A81DD
:101890008B819C81123051F0133059F0113019F0C6
:1018A0000E94B810ECCE0E949010E9CE0E94E01089
:1018B000E6CE0E948E10E3CE002309F448C00981D1
:1018C00000FFDDCE2D81229526952770220F220F55
:1018D0004D814F7050E070E060E0022E04C0440F74
:1018E000551F661F771F0A94D2F70D8180E090E0A4
:1018F000DC0104FF0FC08FE090E0A0E0B0E004C086
:10190000880F991FAA1FBB1F2A95D2F78095909523
:10191000A095B09519811695169513701D838C01AD
:101920009D01042B152B262B372B09831A832B8320
:101930003C831D8169817A818B819C81123071F099
:10194000133079F0113039F00E94011298CE1981CC
:1019500011FF95CEB7CF0E94D91191CE0E942912C6
:101960008ECE0E940C118BCE19811F70198300231B
:1019700029F0812F0E9442118D8116CF8D810E9406
:10198000F50A89810E9473117ACE2D81233F60F47C
:10199000203FE1F0213F41F1002309F440C0111143
:1019A000C3CE89818F7124C03D81333F21F1343F03
:1019B00099F7002351F109810F710983802F0E944B
:1019C000421163E089810E94E21359CE002341F065
:1019D000153008F054CE89818F710E94A8114FCE26
:1019E000163008F04CCEF7CF89818F71002351F269
:1019F0000E94421144CE002329F089818F710E94F8
:101A00001D113DCE0E9418113ACE81E00E94FD13B7
:101A1000123008F434CE82E00E94FD1330CE112340
:101A200061F01D81193309F0EFCE2FEF37EE83E01F
:101A3000215030408040E1F7E5CE89818F71A2CFFF
:101A40000F900F900F900F900F90DF91CF911F91FB
:101A50000F91FF90EF90DF90CF90BF9008950F937C
:101A60001F93CF93DF93EC01688179818A810E9473
:101A7000F7128C010E9451120E948D10B801CE0104
:101A8000DF91CF911F910F910C94FC0ACF93DF93BC
:101A9000EC01988189812B813C81232B19F08923CA
:101AA0008F3F59F4DF91CF910895CE010E942F0D01
:101AB000CE01DF91CF910C94F401CE010E94190266
:101AC0008111F3CF0E943F13882361F38A81882319
:101AD00049F382E0DF91CF910C94FD13882321F02C
:101AE0000E947B130C94AC130895882321F00E946C
:101AF00081130C94AC1308950E9489130E948C13D7
:101B00000C94AC130E942F130C947C0D0E9478133C
:101B10000C94820D282F892F82958F70903C80F431
:101B20008A30B0F4843020F4823090F480E008955C
:101B30008630E1F781E0283E88F0213FB9F70EC0FA
:101B40008C3011F08F3091F793FB882780F908953E
:101B500081E0203F39F018F4283E40F70895243FF3
:101B600029F7FCCF08950E94EB120C948A0DCF93B5
:101B7000DF9300D000D00F92CDB7DEB70F900F905B
:101B80000F900F900F90DF91CF910895CF93DF9337
:101B900000D000D000D0CDB7DEB726960FB6F894AF
:101BA000DEBF0FBECDBFDF91CF9108951F93CF93BE
:101BB000DF93E091570116E0809158018E1304C025
:101BC000DF91CF911F910895CE2FD0E01E9FF0019D
:101BD0001124E75AFE4F40815181628173818481D3
:101BE00095810E94C60D2196EC2FE770E5CF4091BC
:101BF000890150918A0160918B0170918C018091D3
:101C00008D0190918E010C94C60D1F93CF93DF939D
:101C100080918E01807FA9F480918B01882389F0C7
:101C200080915701C09158017091890160918A019A
:101C3000A0918C01B0918D01D62FD72316E0C81347
:101C400004C0DF91CF911F91089590E0109711F09B
:101C5000DF3F19F401968770F2CF189F9001199F0A
:101C6000300D1124F901E75AFE4F41816413F2CF80
:101C700040814713EFCF42814111ECCF4381548122
:101C80004A1B5B0B483C510528F780918E018F70F1
:101C9000806180938E01F901E25AFE4F80818F703E
:101CA0008061808389E891E00E94460DDF91CF91A9
:101CB0001F910C94D60DAF92BF92CF92DF92EF920C
:101CC000FF920F931F93CF93DF93CDB7DEB72B9780
:101CD0000FB6F894DEBF0FBECDBF8C0185E0F801D2
:101CE000DE01179601900D928A95E1F7F801E280E6
:101CF00030812181C380D48089E8A82E81E0B82E6C
:101D00009091890140918A0160918C0170918D01BF
:101D10006115710529F0892F84238F3F09F041C196
:101D2000EE2009F44DC18F8198850E94B30DF82EE5
:101D3000882309F445C186E0F801A9E8B1E00190E3
:101D40000D928A95E1F789E891E00E940B0A0E94C2
:101D5000050E24C180918E01582F507F683C71057B
:101D600008F07AC05111B5C0FE2C241324C093137F
:101D700022C0E11020C08F70806180938E010E948C
:101D8000F70D89E891E00E94460D80918E01F801DF
:101D900085838F2D2B960FB6F894DEBF0FBECDBF77
:101DA000DF91CF911F910F91FF90EF90DF90CF9037
:101DB000BF90AF900895CD2829F0822F83238F3FC5
:101DC00009F084C080E0F82FF170DF2EE091570118
:101DD0004091580156E080FD1CC0EE20D1F2809168
:101DE0008E01816080938E01F12CD3CF8E2F90E0F5
:101DF0005E9FF0011124E75AFE4F6181261306C051
:101E00006081361303C062816E11E7CF0196E82F1F
:101E1000E770E413EBCF8F8198850E94EB12292F96
:101E200022952F70903260F0225F2F70223078F46C
:101E30009F7051F0F8019581907F31F4D12C0AC048
:101E40009F7011F08823D1F3805E8830B8F3C80109
:101E50000E94460DFD2C9DCF51116EC04F815885BB
:101E600069857A858B850E94B70D89E891E00E948B
:101E7000460D86E0F50111928A95E9F70E94F70D6B
:101E8000B3CF86E0F801A9E8B1E001900D928A9500
:101E9000E1F77FCF8F8198850E94B30D81113DC0FE
:101EA00080918E01816080938E01C8010E94460D51
:101EB00070CF4F81588569857A858B850E94B70DD3
:101EC00086E0F50111928A95E9F768C081E08E25D8
:101ED0007ACF241306C0931304C0F801EE2009F44E
:101EE00051C08F8198850E94B30D882309F468C082
:101EF000EE2009F465C080918E01803270F020914F
:101F0000890130918A013A8329831B82DD82CC8248
:101F10008E83CE0101960E94460D86E0F801A9E865
:101F2000B1E001900D928A95E1F70E94050E0E94A2
:101F3000F70DFF24F3942DCF2413D3CF9313D1CFD8
:101F4000E110CFCFF8018583C8010E94460D86E0DD
:101F5000F50111928A95E9F71CCF24139BCF9313B7
:101F600099CF80918E0180FD8CCF982F907F09F4BE
:101F700088CFF8018583903F31F0982F907F905F54
:101F80008F70892B8583C8010E94460D86E0F80179
:101F9000A9E8B1E001900D928A95E1F70E94F70D52
:101FA000F8CEF0908B01F601E61BF70BBF01F110A4
:101FB000D1CE683C710508F07CCFFE2CE110CDCF6E
:101FC000C8010E94460DB5CF1F93CF93DF93CDB7C5
:101FD000DEB72C970FB6F894DEBF0FBECDBF4F8390
:101FE000588769877A878B879C87CE0107960E94DE
:101FF0005B0E882369F08A859B85892B39F058858B
:102000004F81852F84238F3F09F071C016E05FC098
:1020100086E0FE013796DE01119601900D928A95B9
:10202000E1F78F81988520915801409157016A8589
:102030007B85672B59F389238F3F41F330E0C9013A
:102040000196877099274817190671F40E94860D2A
:10205000109258011092570186E0E9E8F1E0DF01A3
:102060001D928A95E9F7D2CF96E0929FD001939F77
:10207000B00D1124A75ABE4FFE01319601900D926A
:102080009A95E1F7809358010E94D60DBFCF819FAA
:10209000C0011124875A9E4F0E945B0E8823E9F0ED
:1020A000E09157011E9FF0011124E75AFE4F408135
:1020B000518162817381848195810E94C60D8091D6
:1020C000570190E00196877099278093570180917E
:1020D0005701909158018913DACF2C960FB6F894D6
:1020E000DEBF0FBECDBFDF91CF911F9108956985EF
:1020F0007A858B859C850E94C60D88CF08950C94A7
:102100007E100E947F106093A2017093A3018093C0
:10211000A4019093A5010C947C0D08950C9481105A
:10212000CF93DF9300D000D0CDB7DEB769837A8339
:102130008B839C838091A2019091A301A091A40123
:10214000B091A50129813A814B815C81282B392BE3
:102150004A2B5B2B29833A834B835C83CA01B901E9
:102160000F900F900F900F90DF91CF910C948110F2
:10217000CF93DF9300D000D0CDB7DEB769837A83E9
:102180008B839C838091A2019091A301A091A401D3
:10219000B091A50129813A814B815C8128233923A3
:1021A0004A235B2329833A834B835C83CA01B901A9
:1021B0000F900F900F900F90DF91CF910C948110A2
:1021C000CF93DF9300D000D0CDB7DEB769837A8399
:1021D0008B839C838091A2019091A301A091A40183
:1021E000B091A50129813A814B815C81282739274B
:1021F0004A275B2729833A834B835C83CA01B90151
:102200000F900F900F900F90DF91CF910C94811051
:102210000C947E100C9408110E940A1160939E0188
:1022200070939F018093A0019093A1010C947C0D69
:1022300060E070E0CB010C940C110F931F93CF93CF
:10224000DF9300D000D0CDB7DEB741E050E060E0D2
:1022500070E08A019B0104C0000F111F221F331F71
:102260008A95D2F709831A832B833C83C901B8016D
:102270000F900F900F900F90DF91CF911F910F91C2
:102280000C940C110F931F93CF93DF9300D000D0C9
:10229000CDB7DEB741E050E060E070E004C0440F2D
:1022A000551F661F771F8A95D2F780919E019091E6
:1022B0009F01A091A001B091A1018A019B01082B6F
:1022C000192B2A2B3B2B09831A832B833C83C901AF
:1022D000B8010F900F900F900F90DF91CF911F9149
:1022E0000F910C940C110F931F93CF93DF9300D099
:1022F00000D0CDB7DEB741E050E060E070E004C050
:10230000440F551F661F771F8A95D2F74095509549
:102310006095709580919E0190919F01A091A00180
:10232000B091A1018A019B01082319232A233B2391
:1023300009831A832B833C83C901B8010F900F9046
:102340000F900F90DF91CF911F910F910C940C1172
:102350000F931F93CF93DF9300D000D0CDB7DEB79C
:1023600041E050E060E070E004C0440F551F661F7C
:10237000771F8A95D2F780919E0190919F01A0913D
:10238000A001B091A1018A019B01082719272A27E2
:102390003B2709831A832B833C83C901B8010F9023
:1023A0000F900F900F90DF91CF911F910F910C9490
:1023B0000C11CF93DF9300D000D0CDB7DEB7698387
:1023C0007A838B839C8380919E0190919F01A09141
:1023D000A001B091A10129813A814B815C81282B18
:1023E000392B4A2B5B2B29833A834B835C83CA01AD
:1023F000B9010F900F900F900F90DF91CF910C9437
:102400000C11CF93DF9300D000D0CDB7DEB7698336
:102410007A838B839C8380919E0190919F01A091F0
:10242000A001B091A10129813A814B815C812823CF
:1024300039234A235B2329833A834B835C83CA0174
:10244000B9010F900F900F900F90DF91CF910C94E6
:102450000C11CF93DF9300D000D0CDB7DEB76983E6
:102460007A838B839C8380919E0190919F01A091A0
:10247000A001B091A10129813A814B815C8128277B
:1024800039274A275B2729833A834B835C83CA0118
:10249000B9010F900F900F900F90DF91CF910C9496
:1024A0000C110895E92FEE0FE90FEE0FE80F8E2FB4
:1024B000877041E001C0440F8A95EAF7E695E695FA
:1024C000E69585E0E89FF0011124E157FE4F30E0EA
:1024D00020E070E05191DF011197CB01022E02C084
:1024E000969587950A94E2F78170819585278423D4
:1024F00085278C932F5F3F4F2530310559F708957D
:10250000E92FEE0FE90FEE0FE80F9E2F9770E6957B
:10251000E695E69585E0E89FF0011124E157FE4F2E
:1025200050E040E080E0219130E0092E02C0369575
:1025300027950A94E2F721703327042E01C0220F59
:102540000A94EAF7822B4F5F5F4F4530510559F7E8
:102550000895BF92CF92DF92EF92FF920F931F9355
:10256000CF93DF938C01C0909E01D0909F01E090AB
:10257000A001F090A1018091A2019091A301A091EE
:10258000A401B091A501C82AD92AEA2AFB2ACFE1E1
:10259000D0E0BC2ED701C6010C2E04C0B695A7957D
:1025A000979587950A94D2F780FD0EC0219788F7FA
:1025B000B12C8B2DDF91CF911F910F91FF90EF9058
:1025C000DF90CF90BF900895B8018C2F0E949402A5
:1025D000019761F3EECFCF93DF93D82FC92F0E94DD
:1025E000A9126D2F7C2FDF91CF910C9494021F9331
:1025F000CF93DF93162FD72F90915601992339F05F
:10260000862F972FDF91CF911F910C94EB12882387
:1026100091F0862F972F0E94A912C82F682F812F23
:102620009D2F0E945212612F7D2F8C2FDF91CF9111
:102630001F910C949402862F972F0E948012C82F0E
:10264000F2CF682F80910601909107010C94191523
:10265000682F80910601909107010C941B158091C1
:102660000601909107010C941D158091A601859596
:102670008595859508958091A6018770089590911C
:10268000A601977081E009F480E008959091C0015F
:1026900092FB222720F9281751F080FB92F99093A2
:1026A000C0018091BF019091C0010C944214089523
:1026B0008091C00182FB882780F991E089270C94E2
:1026C000461381E00C94461380E00C9446138091ED
:1026D000B20108959091B201982B9093B2010895A0
:1026E000982F90958091B20189238093B20108952B
:1026F0001092B20108959091B101982B9093B1017D
:102700000895982F90958091B10189238093B1010C
:1027100008951092B10108951092B001089580912A
:10272000A701089508950C9492139091C00192FD11
:1027300008C09091A701981721F08093A7010C94ED
:10274000931308958091A701882329F01092A7017F
:1027500080E00C9493130895E0910601F091070135
:102760008091B2018083E0910601F09107018081A0
:102770009091B101892B8083E0910601F0910701CE
:1027800080819091B001892B80839091A70199233A
:1027900081F0E0910601F09107018081892B80830F
:1027A00080910601909107010E94CD1481110E9431
:1027B000A21380910601909107010C94D708089507
:1027C0000C94DF139091C00192FD10C098E0899F96
:1027D00090011124622B6093A6010E944211809106
:1027E000A6018595859585950C94E0130C9442116E
:1027F0001092A60180E00C94E0139091A6018095C0
:1028000089238093A601282F277039F4282F082EBA
:10281000000C330B9217130621F49091C00192FF24
:1028200007C08595859585950E9473110C94F813C2
:10283000089580E008956FEF7FEF90E080E00C94C2
:10284000AD1C90E080E00E94891C9C0181E02A3E42
:102850003E4F09F080E0089582E090E00C94811CE6
:1028600083E090E00C94811CCF9384E090E00E9480
:10287000811CC82F82E290E00E94811C982F8C2F2F
:10288000CF910895CF93682FC92F84E090E00E94E4
:102890008F1C6C2F82E290E0CF910C948F1CAB01C7
:1028A000BC018FE090E00C94A11CAB01BC0183E162
:1028B00090E00C94A11C60E070E0CB010C945514E6
:1028C00060E070E0CB010E944F140C945B146AEE40
:1028D0007EEF90E080E00E94AD1C60E082E090E03E
:1028E0000E948F1C60E083E090E00E948F1C109299
:1028F000A2011092A3011092A4011092A50160E020
:1029000084E090E00E948F1C60E082E290E00E94F0
:102910008F1C60E085E090E00E948F1C60E086E004
:1029200090E00E948F1C6FEF87E090E00E948F1C68
:1029300040E050E0BA0188E090E00E94A11C60E015
:102940008DE090E00E948F1C40E050E0BA0188E1E9
:1029500090E00E94A11C60E087E190E00E948F1C43
:1029600040E050E0BA018CE190E00E94A11C70E0D0
:1029700060E080E290E00E94AD1C40E050E0BA01CF
:1029800088E190E00E94A11C0C9460140C946714E0
:10299000682F8EE090E00C948F1CAC019C012E5FA0
:1029A0003F4F485F5F4F80E02417350709F40895D3
:1029B000F90191919F019923B9F38F5FF5CF9C01A4
:1029C000662351F0FC013296285F3F4F81918617B4
:1029D00029F0E217F307D1F780E0089581E0089528
:1029E0009C01FC0132968FEF90E04191461751F027
:1029F0008F3F19F4411101C0892F9F5F9630A9F7CD
:102A00008F3F09F40895280F311D87FD3A95F9018C
:102A1000628308959C01FC013296285F3F4F8191AB
:102A2000861303C0DF0111971C92E217F307B9F771
:102A300008950C94F0140C940A15FC01329686E06B
:102A4000DF011D928A95E9F70895089508950C9481
:102A500026158091D101843049F10E94271580E02C
:102A60000E9478021092B40188E190E020E40FB651
:102A7000F894A895809360000FBE2093600083B700
:102A8000817F846083BF83B7816083BF789488959A
:102A900083B78E7F83BF0FB6F894A89580916000AE
:102AA000886180936000109260000FBE08950895C1
:102AB000CF930E9425150E94FC040E945715C0E088
:102AC0008C2F0E94A004811105C0CF5FC430C1F7D4
:102AD000CF91089581E0FCCF08950C946C150E946D
:102AE000860D0E94CB080E9478020C946D151F92EF
:102AF0001FB61F9211248F939F93AF93BF93809122
:102B0000B401811113C08091C9019091CA01A091B3
:102B1000CB01B091CC014196A11DB11D8093C9019B
:102B20009093CA01A093CB01B093CC01BF91AF9118
:102B30009F918F911F901FBE1F90189582E084BDBA
:102B400093E095BD9AEF97BD80936E0008952FB7DF
:102B5000F8948091C9019091CA01A091CB01B091E4
:102B6000CC012FBF0895CF93DF9300D000D0CDB715
:102B7000DEB78FB7F8942091C9013091CA01409116
:102B8000CB015091CC0129833A834B835C838FBF67
:102B900069817A818B819C810F900F900F900F90AB
:102BA000DF91CF9108959C014FB7F8948091C901AE
:102BB0009091CA01A091CB01B091CC014FBF821B73
:102BC000930B08950F931F93CF93DF9300D000D002
:102BD000CDB7DEB7462F572FBC012FB7F8948091A1
:102BE000C9019091CA01A091CB01B091CC012FBF36
:102BF0008C019D01041B150B260B370BC901B80175
:102C00000F900F900F900F90DF91CF911F910F9128
:102C1000089578941F921FB61F9211248F939F934B
:102C2000AF93BF938091C9019091CA01A091CB014C
:102C3000B091CC010196A11DB11D8093C901909363
:102C4000CA01A093CB01B093CC01BF91AF919F91EA
:102C50008F911F901FBE1F90189587E797E790935D
:102C600001088093000888E19AE00FB6F894A895CF
:102C7000809360000FBE90936000FFCF90931F0180
:102C800080931E0108958091BD01089508950895CF
:102C9000CF93DF93D82FC92F81E08093E9008FEF86
:102CA0009091E800815095FD06C095ED9A95F1F759
:102CB00000008111F5CF8091E80085FF16C050E03B
:102CC00040E068E070E08D2F9C2F0E94F01780910B
:102CD000E8008E778093E80088E0ED2FFC2FA5EBCD
:102CE000B1E001900D928A95E1F7DF91CF910895BF
:102CF00008958091D001811109C00E9478190E9425
:102D0000D5198091E20084608093E20008951092CA
:102D1000D001089508950895089542E061EC81E09E
:102D20000C94F4188091D301893089F148F48230F1
:102D300009F49DC0833009F458C0813041F00895F2
:102D40008A3009F484C08B3009F46AC008958091F8
:102D5000D201813A09F048C08091E800877F8093D2
:102D6000E8008091D6019091D701892B61F468E049
:102D700085EB91E070E00E943F188091E8008B772E
:102D80008093E800089560E090E080E0F3CF8091C8
:102D9000D201813249F58091D6019091D701892BDA
:102DA00019F58091E800877F8093E8008091E80022
:102DB00082FF16C09091F3008091F200029729F4EF
:102DC0008091F1008B7F813021F48091F10080931C
:102DD000BD018091E8008B778093E8000C9428195E
:102DE0008091D1018111E2CF08958091D201813A81
:102DF000D9F78091D6019091D701892BA9F78091BD
:102E0000E800877F8093E8008091E80080FFFCCF96
:102E1000809112018093F1008091E8008E77DCCFE1
:102E20008091D201813201F78091D6019091D70132
:102E3000892BD1F68091E800877F8093E8000E947B
:102E400028198091D401809312010C94860D8091F1
:102E5000D201813249F68091E800877F8093E800B3
:102E60000E9428198091D5018093BE010895809118
:102E7000D201813A09F0B8CF8091E800877F809332
:102E8000E8008091E80080FFFCCF8091BE01C2CFB6
:102E900084B7877F84BF0FB6F894A89580916000AF
:102EA000886180936000109260000FBE80E890E01F
:102EB0000FB6F89480936100909361000FBE0E945A
:102EC0002F090E9478190E94D5198091E200846030
:102ED0008093E20078940E94611C0E94430988E07C
:102EE00091E00E94C6088091D101853099F00E943E
:102EF00049090E943F09F7CF0E9429158091CF010F
:102F0000882341F00E945815882321F00E94DA1787
:102F10000E94860D8091D101853071F30E946F155A
:102F2000E6CF0C9493179C01FB01DA01832F9927BC
:102F300083309105B9F060F481309105B1F10297C9
:102F400061F482E290E02AE031E02D933C93089511
:102F500081329105E1F0829709F190E080E030E064
:102F600020E0F3CFC9019927213059F08230910533
:102F700059F0E6E0F1E0892B81F7849190E09F0120
:102F8000E4CFEAEFF0E0F9CFE2EEF0E0F6CF89E04F
:102F900090E02CE131E0EF2B01F7D7CF80E490E017
:102FA0002EE331E0EF2BC9F6D0CF82E190E02CE2A6
:102FB00031E0CBCF80E189BD82E189BD09B400FE5B
:102FC000FDCF8091D8008F7D8093D8008091E00064
:102FD00082608093E0008091E00081FDFCCF089545
:102FE000AF92BF92CF92DF92FF920F931F93CF9336
:102FF000DF936C01EB018A010E944719F82E8111C1
:1030000023C00115110539F0F80180819181C81B99
:10301000D90BC80ED91EB12CA12C2097A9F08091F4
:10302000E80085FD22C08091E8008E778093E8005B
:1030300001151105A1F0F801808191818A0D9B1D78
:103040009183808385E0F82E8F2DDF91CF911F91A2
:103050000F91FF90DF90CF90BF90AF9008950E94A6
:1030600047198823D1F2F82EEFCFF60181916F0135
:103070008093F1002197FFEFAF1ABF0ACECFFC017A
:10308000CB012091D8013091D9012617370790F054
:10309000009729F42091E8002E772093E80040E083
:1030A000009751F4411108C08091E80082FF31C0BF
:1030B00080E00895C901F3CF2091D1012223A9F125
:1030C0002530A9F12091E80023FD2DC02091E800D2
:1030D00022FDEACF2091E80020FFE2CF3091F300FB
:1030E0002091F200009719F02830310558F041E0A6
:1030F0002830310509F040E02091E8002E77209338
:10310000E800CECF41914093F10001972F5F3F4FF0
:10311000E9CF8091D101882341F0853041F0809141
:10312000E80083FFC1CF81E0089582E0089583E045
:103130000895FC01CB012091D8013091D9012617C7
:10314000370790F0009729F42091E8002E7720931C
:10315000E80040E0009751F4411108C08091E80078
:1031600082FF32C080E00895C901F3CF2091D101E0
:103170002223B1F12530B1F12091E80023FD2EC0CA
:103180002091E80022FDEACF2091E80020FFE2CF65
:103190003091F3002091F200009719F028303105AA
:1031A00058F041E02830310509F040E02091E80076
:1031B0002E772093E800CECF44914093F1003196D2
:1031C00001972F5F3F4FE8CF8091D101882341F0D5
:1031D000853041F08091E80083FFC0CF81E0089501
:1031E00082E0089583E00895982F973028F08F703B
:1031F0008093E90081E008959093E900242F762FD1
:1032000050E0981731F07091EC002091ED00509152
:10321000F00021FD02C09F5FE8CF3091EB003E7FC0
:103220003093EB003091ED003D7F3093ED00309115
:10323000EB0031603093EB007093EC002093ED00D5
:103240005093F0002091EE0027FDE5CF80E0089537
:103250008091D20187FF13C08091E80082FF06C0F1
:103260008091E8008B778093E80004C08091D101C1
:103270008111F2CF08958091D1018823D9F38091F3
:10328000E80080FFF8CF8091E8008E77ECCF2091A6
:10329000E4003091E50095E6A9012091EC00822F31
:1032A000817020FF06C08091E80080FF06C080E0AA
:1032B00008952091E80022FD1AC08091D101882351
:1032C00089F0853089F08091EB0085FD0FC0209159
:1032D000E4003091E50042175307F9F29150E1F60E
:1032E00084E0089582E0089583E0089581E00895E0
:1032F0000E94E6190E94EE19E0EEF0E08081816004
:103300008083E8EDF0E080818F77808319BCA7EDA2
:10331000B0E08C918E7F8C9380818F7E8083109221
:10332000D00108950F931F93CF93DF930E94E61966
:103330000E94EE19C8EDD0E088818F77888388815C
:103340008068888388818F7D888319BC1092D10121
:103350001092CD011092CF011092CE0100EE10E03C
:10336000F80180818B7F808388818160888342E03F
:1033700060E080E00E94F418E1EEF0E080818E7F52
:103380008083E2EEF0E080818160808380818860CC
:103390008083F80180818E7F80838881806188832B
:1033A000DF91CF911F910F910895E8EDF0E08081BA
:1033B0008F7E8083E7EDF0E080818160808384E010
:1033C00082BF81E08093D0010C949219E8EDF0E087
:1033D00080818E7F80831092E20008951092DA003F
:1033E0001092E10008951F920F920FB60F921124D0
:1033F0002F933F934F935F936F937F938F939F93FD
:10340000AF93BF93EF93FF938091E10082FF0BC0D6
:103410008091E20082FF07C08091E1008B7F809362
:10342000E1000E94601C8091DA0080FF19C0809149
:10343000D80080FF15C08091DA008E7F8093DA007B
:103440008091D90080FF94C080E189BD82E189BD6F
:1034500009B400FEFDCF81E08093D1010E9479166E
:103460008091E10080FF19C08091E20080FF15C0CB
:103470008091E2008E7F8093E2008091E200806183
:103480008093E2008091D80080628093D80019BCBC
:1034900085E08093D1010E948B168091E10084FF2A
:1034A00029C08091E20084FF25C080E189BD82E1CE
:1034B00089BD09B400FEFDCF8091D8008F7D809337
:1034C000D8008091E1008F7E8093E1008091E2003E
:1034D0008F7E8093E2008091E20081608093E20021
:1034E0008091CD01882309F449C084E08093D10103
:1034F0000E948C168091E10083FF29C08091E20038
:1035000083FF25C08091E100877F8093E10082E006
:103510008093D1011092CD018091E1008E7F809344
:10352000E1008091E2008E7F8093E2008091E200D2
:1035300080618093E20042E060E080E00E94F41845
:103540008091F00088608093F0000E948A16FF91BD
:10355000EF91BF91AF919F918F917F916F915F910B
:103560004F913F912F910F900FBE0F901F90189584
:1035700019BC1092D1010E94871672CF8091E3008E
:1035800087FD02C081E0B2CF83E0B0CF1F920F92DF
:103590000FB60F921124FF920F931F932F933F9317
:1035A0004F935F936F937F938F939F93AF93BF934B
:1035B000CF93DF93EF93FF9309EE10E0F801808142
:1035C000C091EC00C795CC27C7958F70FC2EF82AC8
:1035D0001082C0EFD0E08881877F888378940E9432
:1035E0000F1BF8011082888188608883CF2DCF70EF
:1035F000C083FF91EF91DF91CF91BF91AF919F91E8
:103600008F917F916F915F914F913F912F911F917A
:103610000F91FF900F900FBE0F901F9018951F9362
:10362000CF93DF93CDB7DEB7AA970FB6F894DEBF7E
:103630000FBECDBF82ED91E0FC0101962091F1001B
:10364000208321E08A3D9207B9F70E94921680916B
:10365000E80083FF1DC18091D2019091D3019A307F
:1036600008F016C1E92FF0E0E052F34E0C947B1CF9
:10367000803899F0823809F00BC18091D6018F70A3
:10368000873008F005C18093E9008091EB0085FB4D
:10369000882780F91092E90006C08091CE019091B0
:1036A000CF01911182609091E800977F9093E8009C
:1036B0008093F1001092F1008091E8008E77E4C0D1
:1036C000882309F4D2C0823009F0E2C08091D4018D
:1036D0008111D5C08091D6018F702FEF280F263031
:1036E00008F0D6C08093E9002091EB0020FFC7C00E
:1036F000933031F48091EB0080628093EB00BFC087
:103700009091EB0090619093EB0021E030E001C0DC
:10371000220F8A95EAF72093EA001092EA0080913E
:10372000EB008860EACF8111B3C01091D4011F77FC
:103730008091E3008078812B8093E3008091E80002
:10374000877F8093E8000E9428198091E80080FF1D
:10375000FCCF8091E30080688093E30082E0111148
:1037600083E08093D10194C08058823008F090C0EB
:103770008091D4019091D5018C3D23E0920799F579
:1037800083E08A838AE289834FB7F894DE01139637
:1037900020E03EE051E2E32FF0E0509357008491A7
:1037A00020FF03C082958F703F5F8F708A30C8F012
:1037B000895C90E08D939D932F5F243161F74FBF1B
:1037C0008091E800877F8093E8006AE270E0CE0194
:1037D00001960E943F188091E8008B778093E80063
:1037E00057C0805DE6CF6091D6017091D701AE01E0
:1037F0004F5F5F4F0E949117BC01892B09F448C0AD
:103800008091E800877F8093E80089819A810E94F7
:103810009918E1CF8038E1F58091E800877F8093A7
:10382000E8008091CD018093F10046CF811130C036
:103830009091D401923060F58091E800877F809369
:10384000E8009093CD010E9428198091CD01882332
:1038500011F084E005C08091E30087FDFACF81E09C
:103860008093D1010E948D1613C08091D4018130C4
:1038700079F481E0933009F080E08093CF011092D9
:10388000E9008091E800877F8093E8000E94281972
:103890008091E80083FF0AC08091E800877F8093D1
:1038A000E8008091EB0080628093EB00AA960FB64F
:1038B000F894DEBF0FBECDBFDF91CF911F91089569
:1038C0000895CF938091D101882399F08091E900E8
:1038D000C091EC00C795CC27C7958F70C82B10926C
:1038E000E9008091E80083FD0E940F1BCF70C09318
:1038F000E900CF910895EE0FFF1F0590F491E02DA0
:103900000994F999FECF92BD81BDF89A992780B5A7
:103910000895A8E1B0E042E050E00C94B51C262FD9
:10392000F999FECF92BD81BDF89A019700B40216B5
:1039300039F01FBA20BD0FB6F894FA9AF99A0FBE63
:1039400008950396272F0E94901C0E948F1C252FFC
:103950000E94901C242F0C94901C0196272F0E94EB
:10396000901C0C948F1CDC01CB01FC01F999FECF5B
:1039700006C0F2BDE1BDF89A319600B40D924150F7
:103980005040B8F70895F894FFCFB806BE06C206B7
:10399000D006D406D806DC06E206EA06EE06F206F3
:1039A000F606020706070A070E07140732071C0768
:1039B000CC06FA06FE06E606180728073B073F076F
:1039C000381B601B481C601B481C931BB41B481C05
:0439D0000A1C161C9B
:1039D400DC0000000001A8014316481646164716ED
:0E39E400781601F733F6313435F5F43236003B
:00000001FF
