:100000000C942B010C9472010C9472010C947201EB
:100010000C9472010C9472010C9472010C94720194
:100020000C9472010C9472010C940F190C94E21947
:100030000C94BA140C9472010C9472010C94720119
:100040000C9472010C9472010C9472010C94720164
:100050000C9472010C9425150C9472010C9472018D
:100060000C9472010C9472010C9472010C94720144
:100070000C9472010C9472010C9472010C94720134
:100080000C9472010C9472010C9472010C94720124
:100090000C9472010C9472010C9472010C94720114
:1000A0000C9472010C9472010C9472016874747057
:1000B000733A2F2F716D6B2E666D2F0A00514D4BC9
:1000C00020697320746865206265737420746869A0
:1000D0006E6720657665722100560000004C00199D
:1000E00001060100005D005C005B005A0059000041
:1000F00000610060005F005E0062006300000000BD
:10010000002A002C0028002B000000000000000046
:10011000002A2B2800000000000000000000000062
:100120000000000029000000002C25202030341E93
:1001300021222D3038102E3637271E1F2021222352
:100140002425263736643864101F1405060708096D
:100150000A0B0C0D0E0F3311121304151617181974
:100160001D1B1C1A2F6430232E32140506070809A4
:100170000A0B0C0D0E0F3311121304151617181954
:100180001D1B1C1A261E27384C000000000800000A
:100190000001000078010000780000000020CCFF82
:1001A000C3FEFFFF87000000000000000000000009
:1001B00000000000000000000016036C00650066EF
:1001C0000074006E0075006D007000610064000036
:1001D000000A0372006F0065006C00000004030950
:1001E0000409022200010100A0FA09040000010331
:1001F00001010009211101000122400007058103CE
:1002000008000A1201100100000008EDFE60600104
:10021000000102000105010906A101050719E029F5
:10022000E715002501950875018102950175088182
:10023000010507190029FF150026FF00950675081E
:10024000810005081901290595057501910295019F
:1002500075039101C00011241FBECFEFDAE0DEBFAD
:10026000CDBF04B603FE27C08091B8019091B901BB
:10027000A091BA01B091BB018730904BA740B04B21
:10028000D1F41092B8011092B9011092BA011092F3
:10029000BB0114BE84B7877F84BF0FB6F894A895BE
:1002A00080916000886180936000109260000FBEB2
:1002B000E0E0F8E3099511E0A0E0B1E0ECE0F8E35C
:1002C00002C005900D92A831B107D9F721E0A8E14D
:1002D000B1E001C01D92A83BB207E1F70E9464168D
:1002E0000C94DF1B0C9400009C01FB012F358DE565
:1002F000380729F020363D4551F081E0089582818C
:100300008823D9F38DEB90E00E941703F6CF82810A
:10031000882399F38CEA90E0F7CF81E008950C945C
:10032000740108950C9491011F93CF93DF9300D033
:1003300000D00F92CDB7DEB749835A836B833091DB
:10034000340189819A8131111DC06623B9F02223BD
:10035000A9F00E94EC11182F682F89819A810E94C0
:10036000951169817A81812F0F900F900F900F90D6
:100370000F90DF91CF911F910C9429030E94C3111C
:10038000182FEFCF0E94EC1169817A81EDCFFC012B
:10039000262F408151816281738184810C94940164
:1003A000CF93DF93D82FC92F60E00E94C7016D2F34
:1003B0007C2FDF91CF910C9492010E940C050C943C
:1003C00045050C94480508950E94C90C0E94E3015C
:1003D0002FEF84E39CE0215080409040E1F700C083
:1003E00000000C9449150F931F93CF93DF938C015A
:1003F00061E00E94C701EC01B8010E948F018823CF
:10040000A9F1B801CE010E94C006882379F1B80194
:10041000CE010E941507882349F1B801CE010E9440
:10042000ED07882319F1F8018281882361F0CB352B
:10043000FDE5DF0721F170F4C115ECE5DE07A1F061
:10044000CF3DDC45C9F0C801DF91CF911F910F91DD
:100450000C948D01CC358DE5D807A1F0CD35DD4567
:1004600091F70E949B12EFCF0E94E40180E0DF91A0
:10047000CF911F910F9108950E940914F7CF0E9408
:10048000A412E1CF0E94A712DECFDF92EF92FF927B
:100490000F931F93CF93DF93E82FF0E0E75FFE4FBA
:1004A000D490282F26952695269530E0F901E75619
:1004B000FE4F0491877010E0082E02C01595079535
:1004C0000A94E2F701701127F901E757FE4FE49013
:1004D000F12C082E02C0F594E7940A94E2F791E01B
:1004E000E922FF24F901E755FE4FC491D0E002C094
:1004F000D595C7958A95E2F7C170DD2701151105DD
:1005000019F081EE0E946109E114F10419F086EE00
:100510000E9461098D2D0E94370AEF2819F086EE9E
:100520000E94D109012B19F081EE0E94D109CD2B37
:1005300051F08CE2DF91CF911F910F91FF90EF90DE
:10054000DF900C94370ADF91CF911F910F91FF90AC
:10055000EF90DF900895EF92FF920F931F93CF9348
:10056000DF938C01F62E8AE0E82EF801849188232F
:1005700009F456C0813009F04FC0E8012196FE0110
:100580008491813099F42196FE0184910E94370A6A
:100590008E010F5F1F4F8F2D882339F3EFE9FFE0A6
:1005A0003197F1F700C000008150F6CF823039F466
:1005B000E8012296FE0184910E946109E9CF83300F
:1005C00039F4E8012296FE0184910E94D109E0CF1E
:1005D0008430F1F6E8012296FE01249180E090E05B
:1005E000FE0131962053330B2A30310550F000972D
:1005F00079F2EFE9FFE03197F1F700C000000197D1
:10060000F6CFE89EA001E99E500D1124C901840F88
:10061000951F2491EF01E4CF0E944502E801B8CF75
:10062000DF91CF911F910F91FF90EF90089560E0BF
:100630000C94AB0208950C941A0381E008950C9475
:100640001D03CF93C82F0E941B038C2FCF910C94B6
:100650001F03972F70E026E0929F600D711D1124FB
:10066000FB0198E1899FE00DF11D1124EE0FFF1FA2
:10067000E752FF4F859194910895CF93DF930E94A5
:1006800029030E941904EC01811523E59207E0F586
:10069000811532E5930708F0A2C0C11580E2D807A2
:1006A000E8F4CF3FD10509F068F4C53AD10570F4FC
:1006B000C430D10538F481E0219709F080E0C82FDB
:1006C00020E0D22FCE01DF91CF910895CE01805E40
:1006D00091090897B8F3D0E0C0E0F4CFC11531E537
:1006E000D30768F4C11580E5D80708F05BC0CE01D8
:1006F00090548115904178F7DF70D06AE3CFDC2FFA
:10070000CC27C16FD06ADECF811539E59307A0F5FC
:10071000C11588E5D80708F07AC0C11525E5D207CC
:10072000C8F4C11534E5D30708F06CC09E012370EE
:10073000332781E090E002C0880F991F2A95E2F7E5
:10074000C695C69520E2C29FE0011124C82BD92B83
:10075000DA68B8CFCE0195558F3F910511F008F0BA
:10076000BACF8C2F0E94B104C82FD0E0DC2FCC2749
:10077000CC27DF71D062A6CF81153AE5930708F444
:100780004BC090568115904208F0A5CF8D2F8F71E8
:100790000E94B10490E0982F882788279F718C2BA6
:1007A000EC01E8CF9E0174E0369527957A95E1F744
:1007B00023708C2F86958695837030E2839FC001CD
:1007C0001124922BC37021E030E002C0220F331FAE
:1007D000CA95E2F7822B932BEC01DC6873CF9C0166
:1007E0002370332781E090E002C0880F991F2A957B
:1007F000E2F7C695C69520E2C29FE0011124C82BFE
:10080000D92BEBCFDC2FCC27C46FD06A5BCFDC2F8A
:10081000CC27C06FD06A56CF8F700E94B10434E0ED
:10082000D695C7953A95E1F7CF709C2FEC01D0692A
:1008300049CF803E910599F1C8F48133910509F4BF
:1008400076C048F48932910509F46AC08A3291056C
:1008500009F474C0089589339105D1F08238910567
:10086000B9F08533910509F454C00895843E91058B
:1008700099F138F4823E9105F9F0833E910509F132
:100880000895863E910599F1873E9105B9F1089545
:1008900020919D012370A1F080EE90E008952091B9
:1008A0009D0120FD52C030919E0130FF09C024FF00
:1008B0004FC090E080E004C020919D0122FDF7CF61
:1008C000089520919D0122FD46C030919E0130FD8A
:1008D000E3CF24FFF5CFEDCF20919E0121FFF0CF94
:1008E00080919D0184FDE5CF87EE90E008952091F1
:1008F0009D0123FFE5CF24FDDCCFF6CF20919D01A4
:1009000023FD2CC030919E0131FFE3CF84EE90E0B7
:10091000089520919D0125FFD3CF89E290E00895AD
:1009200020919D0125FFCCCF85E390E00895209193
:100930009D0126FFC5CF8AE290E0089520919D0198
:1009400026FFBECF81E390E0089589E390E008950B
:1009500083EE90E0089582EE90E0089586EE90E0B8
:10096000089590919D0192FF06C0282F287128308C
:10097000F9F4877F846093FF06C0282F28712831FF
:10098000F1F4877E846120919E0120FF06C0382FFC
:1009900038713830D9F4877F816021FF06C0282F55
:1009A00028712831D1F4877E816194FD877E089576
:1009B000282F24712430F9F68B7F8860DCCF282F14
:1009C0002471243101F78B7E8861DDCF382F31719E
:1009D000313019F78E7F8860E0CF282F21712131C7
:1009E00021F78E7E8861E1CF0C945E130E94A605EC
:1009F0008FE39CE90197F1F700C000000E94A60573
:100A000080E00E944A0580FF04C00E94F4040C9418
:100A1000491508950C94F604CF93DF9300D000D0CD
:100A2000CDB7DEB70E946413811102C00E94091481
:100A30000E946F13809391010E94771390939E01FF
:100A400080939D010E940A050E947313282F30E0B5
:100A500050E040E0CA01B9010E94D10F80917C01B1
:100A600090917D01A0917E01B0917F0189839A834D
:100A7000AB83BC83BC01CD010F900F900F900F9002
:100A8000DF91CF910C944D1008950C944405089576
:100A90000C944705E82FF0E0ED55FE4F8081089556
:100AA000089580EA8A95F1F7089500C008950C949E
:100AB0005105F894E82FE295EF70F0E041A18F70B6
:100AC00021E030E0B90102C0660F771F8A95E2F796
:100AD000CB01962F9095942391A392A1892B82A369
:100AE0007894089585EF0E94590584EF0E94590576
:100AF00082E30E94590586E30E94590587EF0E9410
:100B0000590583E30E94590586EF0E94590581E348
:100B10000E94590584E30E94590585E30E94590506
:100B2000AFE9B1E01C92E3EAF1E0108211961C9269
:100B30001197118212961C921297128213961C9290
:100B4000138284E00E941D060C94DD01CF92DF9297
:100B5000EF92FF920F931F93CF93DF93C3E1D1E006
:100B60000FE911E0D12CEE24E394F12C8991F89453
:100B7000E82FE295EF70F0E021A18F70A70102C08D
:100B8000440F551F8A95E2F7CA01922F982B91A323
:100B900092A18095892382A378940E945505ADE0A7
:100BA000B1E030E020E0C12C4D91E42FE295EF70F0
:100BB000E05EF0E0808190E04F7002C095958795EF
:100BC0004A95E2F780FD35C08E2D022E01C0880FB8
:100BD0000A94EAF7C82A2F5F3F4F2630310521F7E4
:100BE000FE01319780810E9459050E945705F80146
:100BF0008081C81601F1C08281E0D82A0F5F1F4FA3
:100C0000F1E0C731DF0709F0B1CF2D2D44E063EAF1
:100C100071E08FE991E00E941E060E94E1018D2D96
:100C2000DF91CF911F910F91FF90EF90DF90CF90C8
:100C3000089580E0CFCF80E0E0CF0895FF920F933A
:100C40001F93CF93DF93F82E092F162FD72FC42F82
:100C5000222349F081E080931C010E94EA149093C2
:100C60001B0180931A0180911C018823A1F08091BF
:100C70001A0190911B010E941615069760F0EF2D46
:100C8000F02FA12FBD2FCF018C0F911DE817F90771
:100C900041F410921C01DF91CF911F910F91FF90B1
:100CA000089521912D93F2CF0F931F93CF93DF934C
:100CB000C42FD22FFC0182818823C9F040931F01E9
:100CC0000E94EA1490931E0180931D0180E28C0F14
:100CD000883008F050C0C77081E001C0880FCA9505
:100CE000EAF7DF91CF911F910F910C943F0A109179
:100CF0001F01141335C080911D0190911E010E94A7
:100D00001615883C910560F5C0E2CD0F1D17B9F0AE
:100D100080E2810F883040F4177081E001C0880FB5
:100D20001A95EAF70E94460AC83048F481E09D2FE0
:100D3000977001C0880F9A95EAF70E943F0A802FAA
:100D40000E94370AC830B8F4D77081E001C0880F1C
:100D5000DA95EAF7DF91CF911F910F910C94460A33
:100D600080E28C0F883038F4C77081E001C0880FB2
:100D7000CA95EAF7EFCFDF91CF911F910F910895B8
:100D80000F939C01CB01243F4CE53407A1F190F473
:100D9000293DFCE53F0749F12A3D4CE53407E9F1DF
:100DA000283D3C45C1F0FC0182818823E1F110928D
:100DB0001F0119C0263FFCE53F0719F1273F4CE50D
:100DC000340729F1253F3C4571F707E225EE44EE53
:100DD00065EF7CE505C006E221EE41EE68ED7CE5BD
:100DE0000E94540680E00F91089507E225EE45EE3B
:100DF00069ED7CE5F5CF06E221EE40EE64EF7CE59F
:100E0000EFCF06E221EE42EE66EF7CE5E9CF07E2A6
:100E100025EE46EE67EF7CE5E3CF08E221E045EE04
:100E20006AED7CE5DDCF81E0DECFCF93DF93EC018F
:100E3000FB018281882309F4CEC0C631FCE5DF07BF
:100E4000E0F4C2309CE5D907F0F00E94771390934C
:100E50009E0180939D01C631ECE5DE0720F5C2308E
:100E6000FCE5DF0798F480919D0190919E010E941E
:100E700085130E94C90C80E006C09E012B5F3C4593
:100E80002930310510F3DF91CF910895FE01E35031
:100E9000FC4580919D018160E331F105B0F4EF5193
:100EA000F44E0C94971BCE018B5F9C450997D8F6A6
:100EB000FE01EC5FFC45E830F10590F4EC50F44E97
:100EC0000C94971B80919D01826080939D01CBCFF4
:100ED00080919D018460F9CF80919D018860F5CF5C
:100EE00080919E01816080939E01BDCF80919E0183
:100EF0008260F9CF80919D018061E7CF80919D0153
:100F00008062E3CF80919D018064DFCF0E94C90C95
:100F100080919D018068D9CF80919D018C60D5CF53
:100F200080919E018360DFCF80919D018E7FCDCF28
:100F300080919D018D7FC9CF80919D018B7FC5CF11
:100F400080919D01877FC1CF80919E018E7FCBCF05
:100F500080919E018D7FC7CF80919D018F7EB5CFFF
:100F600080919D018F7DB1CF80919D018F7BADCF11
:100F70000E94C90C80919D018F77A7CF80919D0120
:100F8000837FA3CF80919E018C7FADCF80919D0107
:100F900082FB992790F921E0922790FB82F990FB40
:100FA00083F993CF80919E01982F909591708E7FB9
:100FB000892B90FB81F997CF0E94C90C90919D01DC
:100FC000892F97FB87F9805880CF81E00E940B140E
:100FD0004ACF80E0FBCF81E056CFCF93DF93EB0188
:100FE00086319C4511F50E94AA129A81992399F0A5
:100FF0008A7A91E009F490E090932001811109C070
:1010000089E20E9464120E94EF1280E0DF91CF918A
:10101000089585E3F6CF80912001811104C089E213
:101020000E946B12F0CF85E3FBCF81E0EFCF90936E
:101030002601809325010895E0912501F091260174
:10104000309721F00190F081E02D099480E008951F
:10105000E0912501F0912601309721F00280F38183
:10106000E02D09940895209123013091240128173F
:10107000390771F09093240180932301E0912501B9
:10108000F0912601309721F00680F781E02D099438
:10109000089520912101309122012817390771F01C
:1010A0009093220180932101E0912501F091260186
:1010B000309721F00084F185E02D099408950E9475
:1010C000F614609330017093310180933201909354
:1010D000330160932C0170932D0180932E01909326
:1010E0002F01089585B7806885BF85B7806885BF63
:1010F0000895089508950C94790808950C947D0836
:101100000E9472088CE593E10E945A150E947A08A9
:101110000C947B0881E008950C948A080895089542
:101120000E948E080C948F080E94E1140E947205A0
:101130000C947E08AF92BF92CF92DF92EF92FF9213
:101140000F931F93CF93DF9300D000D00F92CDB7B2
:10115000DEB70E94A60581110E945F0888E2A82ED2
:1011600081E0B82E10E000E0C02E802F0E944A05DA
:10117000F82EF501E1905F01E81609F44AC080916C
:10118000910181FD0E9450058E2D8F25D12CEE24DA
:10119000E394982F9E21C1F10E948C08882399F036
:1011A000D982CA82FE2081E009F480E08B830E940C
:1011B000EA148160782F9D838C8349815A816B81E9
:1011C000892F0E943009F801E85DFE4F80818E254D
:1011D00080830E941C0890912701891789F10E9441
:1011E0001C08809327010F900F900F900F900F9085
:1011F000DF91CF911F910F91FF90EF90DF90CF90F3
:10120000BF90AF900C942103D394EE0CF6E0DF1264
:10121000C0CF0F5F1F4F0430110509F0A5CF8FEF2E
:1012200089838A831B820E94EA148160782F9D83C0
:101230008C8349815A816B81892F0E943009C9CFE3
:101240000F900F900F900F900F90DF91CF911F9103
:101250000F91FF90EF90DF90CF90BF90AF900895E7
:10126000CF93DF93CDB7DEB72B970FB6F894DEBFE1
:101270000FBECDBF4F83588769877A878B876111EF
:101280000E94CC121E8285E0FE013796DE01119687
:1012900001900D928A95E1F749815A816B817C8199
:1012A0008D819E812B960FB6F894DEBF0FBECDBF09
:1012B000DF91CF910C94270FFC01808191810C94D8
:1012C0002E12CF93C82F882309F469C08238C1F445
:1012D0000E941C0881FD63C089E30E9464120E9481
:1012E000EF122FEF81EE94E0215080409040E1F723
:1012F00000C0000089E30E946B12CF910C94EF12A2
:101300008338A1F40E941C0880FD49C083E50E9437
:1013100064120E94EF122FEF81EE94E02150804082
:101320009040E1F700C0000083E5E5CF8438A1F4E8
:101330000E941C0882FD33C087E40E9464120E9450
:10134000EF122FEF81EE94E0215080409040E1F7C2
:1013500000C0000087E4CFCF8CEF8C0F813A90F46F
:101360006C2F80910001909101010E94221488232A
:1013700029F08C2F0E946B120E94EF128C2F0E947A
:101380006412BBCF80E28C0F883048F4C77081E0D4
:1013900001C0880FCA95EAF70E94AD12AECFCF9177
:1013A0000895882309F44BC0823871F40E941C0808
:1013B00081FF45C089E30E9464120E94EF1289E315
:1013C0000E946B120C94EF12833859F40E941C088F
:1013D00080FF35C083E50E9464120E94EF1283E50E
:1013E000EFCF843859F40E941C0882FF28C087E49C
:1013F0000E9464120E94EF1287E4E2CF9CEF980FE4
:10140000913AF0F290E2980F983050F4877091E0A2
:1014100001C0990F8A95EAF7892F0E94B312D2CFA3
:101420009BE5980F933020F490E080E00C94330813
:10143000885A873120F490E080E00C9449080895A0
:101440001F93CF93DF93182FEB010E946109209720
:1014500031F4812FDF91CF911F910C94D1098FE945
:101460009FE00197F1F700C000002197F0CF70E0F6
:1014700060E0893311F460E570E00C94200A882361
:1014800021F00E94AD120C94EF120895882321F0F0
:101490000E94B3120C94EF120895BF92CF92DF9284
:1014A000EF92FF920F931F93CF93DF9300D000D062
:1014B0000F92CDB7DEB76C016D837983FC01028199
:1014C000158112951F700E948212E82E8823A1F0C8
:1014D000E02E002389F08981807F803429F08D817E
:1014E000805EE12C883040F082E00E9440130E9430
:1014F000821291E0E82EE926B980B2949FE0B922E9
:10150000F8E0BF1609F4D5C0FB15A8F121E02B15B2
:1015100008F044C08EE08B0D8F70823008F474C0E8
:10152000EB2DE850FF0B349720F40E941C080E941A
:101530002103EE2009F4D5C10E947E1280FDD1C1A5
:10154000F60112820E9478120E948510C6010E9444
:10155000970C0E9478120F900F900F900F900F90A1
:10156000DF91CF911F910F91FF90EF90DF90CF907F
:10157000BF900C94B61039E0B31609F446C186E06A
:101580008B0D8F70823060F68D81823F09F04EC1E5
:1015900089818F71002309F47CC145C119811F70B5
:1015A0009981907F11F01295107F0023B1F01123E3
:1015B00061F08D81805E883018F00D81011109C0C5
:1015C000812F0E94AD120E94EF128D810E9461094D
:1015D000A7CF812F0E94BE12F6CF8D810E94D10924
:1015E000112309F49DCF8D81805E883018F00D8124
:1015F000011106C0812F0E94B3120E94EF1290CFFA
:10160000812F0E94C412F9CF29812F70F22E3981C7
:10161000307F303219F0F29480EFF8228D818823E8
:1016200069F0813049F1002391F1112351F1F60164
:10163000858180FFCACF8F70858323C0002381F00E
:10164000111106C00E94D2128F290E943F0A68CF52
:101650001130C1F70E94D2128F290E94D81260CF98
:10166000111106C00E94E5128F2D0E94460A58CF24
:10167000113009F455CFF6CF002329F0163008F0C9
:101680004FCF8F2DE2CF153008F04ACFEDCF112389
:1016900059F30D81093349F41FEF27EE33E0115060
:1016A00020403040E1F700C000008D810E94D10948
:1016B00037CF8981837009F050C0011131CF2D815E
:1016C000229526952770220F220F4D814F7050E0F2
:1016D00070E060E0022E04C0440F551F661F771FA4
:1016E0000A94D2F70D8180E090E0DC0104FF0FC086
:1016F0008FE090E0A0E0B0E004C0880F991FAA1F1F
:10170000BB1F2A95D2F780959095A095B095198129
:101710001695169513701D838C019D01042B152BB6
:10172000262B372B09831A832B833C831D816981E8
:101730007A818B819C81123051F0133059F0113035
:1017400019F00E94FB0FECCE0E94D30FE9CE0E944D
:101750002310E6CE0E94D10FE3CE002309F448C047
:10176000098100FFDDCE2D81229526952770220F5D
:10177000220F4D814F7050E070E060E0022E04C0F7
:10178000440F551F661F771F0A94D2F70D8180E022
:1017900090E0DC0104FF0FC08FE090E0A0E0B0E03B
:1017A00004C0880F991FAA1FBB1F2A95D2F78095E6
:1017B0009095A095B09519811695169513701D8377
:1017C0008C019D01042B152B262B372B09831A83A3
:1017D0002B833C831D8169817A818B819C811230AE
:1017E00071F0133079F0113039F00E94441198CE25
:1017F000198111FF95CEB7CF0E941C1191CE0E9486
:101800006C118ECE0E944F108BCE19811F701983E0
:10181000002329F0812F0E9485108D8116CF8D81A4
:101820000E94460A89810E94B6107ACE2D81233FFC
:1018300060F4203FE1F0213F41F1002309F440C072
:101840001111C3CE89818F7124C03D81333F21F1B5
:10185000343F99F7002351F109810F710983802FDB
:101860000E94851063E089810E94251359CE0023D0
:1018700041F0153008F054CE89818F710E94EB1031
:101880004FCE163008F04CCEF7CF89818F710023F0
:1018900051F20E94851044CE002329F089818F7176
:1018A0000E9460103DCE0E945B103ACE81E00E9403
:1018B0004013123008F434CE82E00E94401330CE40
:1018C000112361F01D81193309F0EFCE2FEF37EEB0
:1018D00083E0215030408040E1F7E5CE89818F716F
:1018E000A2CF0F900F900F900F900F90DF91CF919C
:1018F0001F910F91FF90EF90DF90CF90BF900895D0
:101900000F931F93CF93DF93EC01688179818A81D4
:101910000E943A128C010E9494110E94D00FB801CB
:10192000CE01DF91CF911F910F910C944D0ACF936F
:10193000DF93EC01988189812B813C81232B19F065
:1019400089238F3F59F4DF91CF910895CE010E94F2
:10195000800CCE01DF91CF910C94D001CE010E947A
:10196000F3018111F3CF0E948212882361F38A81EF
:10197000882349F382E0DF91CF910C9440130E94B9
:10198000CC120E94CF120C94EF120E9472120C948F
:10199000BF0C0E94BB120C94C50C282F892F829576
:1019A0008F70903C80F48A30B0F4843020F4823020
:1019B00090F480E008958630E1F781E0283E88F0D9
:1019C000213FB9F70EC08C3011F08F3091F793FBA7
:1019D000882780F9089581E0203F39F018F4283EE7
:1019E00040F70895243F29F7FCCF08950E942E1256
:1019F0000C94CD0CCF93DF9300D000D00F92CDB7D5
:101A0000DEB70F900F900F900F900F90DF91CF9156
:101A10000895CF93DF9300D000D000D0CDB7DEB7CC
:101A200026960FB6F894DEBF0FBECDBFDF91CF91E3
:101A300008951F93CF93DF93E091350116E08091D5
:101A400036018E1304C0DF91CF911F910895CE2FE0
:101A5000D0E01E9FF0011124E95CFE4F40815181CE
:101A600062817381848195810E94090D2196EC2FFA
:101A7000E770E5CF4091670150916801609169017D
:101A800070916A0180916B0190916C010C94090D29
:101A90001F93CF93DF9380916C01807FA9F4809195
:101AA0006901882389F080913501C09136017091D8
:101AB000670160916801A0916A01B0916B01D62F16
:101AC000D72316E0C81304C0DF91CF911F9108956A
:101AD00090E0109711F0DF3F19F401968770F2CF74
:101AE000189F9001199F300D1124F901E95CFE4FF8
:101AF00041816413F2CF40814713EFCF42814111FE
:101B0000ECCF438154814A1B5B0B483C510528F7BD
:101B100080916C018F70806180936C01F901E45CAD
:101B2000FE4F80818F708061808387E691E00E9404
:101B3000970CDF91CF911F910C94190DAF92BF922A
:101B4000CF92DF92EF92FF920F931F93CF93DF9389
:101B5000CDB7DEB72B970FB6F894DEBF0FBECDBF63
:101B60008C0185E0F801DE01179601900D928A95AF
:101B7000E1F7F801E28030812181C380D48087E6DB
:101B8000A82E81E0B82E9091670140916801609184
:101B90006A0170916B016115710529F0892F842309
:101BA0008F3F09F041C1EE2009F44DC18F81988526
:101BB0000E94F60CF82E882309F445C186E0F8014E
:101BC000A7E6B1E001900D928A95E1F787E691E0F2
:101BD0000E945C090E94480D24C180916C01582F1D
:101BE000507F683C710508F07AC05111B5C0FE2CD9
:101BF000241324C0931322C0E11020C08F70806191
:101C000080936C010E943A0D87E691E00E94970C48
:101C100080916C01F80185838F2D2B960FB6F89477
:101C2000DEBF0FBECDBFDF91CF911F910F91FF900F
:101C3000EF90DF90CF90BF90AF900895CD2829F01E
:101C4000822F83238F3F09F084C080E0F82FF1704A
:101C5000DF2EE09135014091360156E080FD1CC039
:101C6000EE20D1F280916C01816080936C01F12CA7
:101C7000D3CF8E2F90E05E9FF0011124E95CFE4FE0
:101C80006181261306C06081361303C062816E1124
:101C9000E7CF0196E82FE770E413EBCF8F819885AB
:101CA0000E942E12292F22952F70903260F0225F11
:101CB0002F70223078F49F7051F0F8019581907F59
:101CC00031F4D12C0AC09F7011F08823D1F3805ECB
:101CD0008830B8F3C8010E94970CFD2C9DCF51119C
:101CE0006EC04F81588569857A858B850E94FA0C74
:101CF00087E691E00E94970C86E0F50111928A95A3
:101D0000E9F70E943A0DB3CF86E0F801A7E6B1E00B
:101D100001900D928A95E1F77FCF8F8198850E947F
:101D2000F60C81113DC080916C01816080936C0143
:101D3000C8010E94970C70CF4F81588569857A85BC
:101D40008B850E94FA0C86E0F50111928A95E9F7DD
:101D500068C081E08E257ACF241306C0931304C097
:101D6000F801EE2009F451C08F8198850E94F60C8D
:101D7000882309F468C0EE2009F465C080916C01E5
:101D8000803270F020916701309168013A83298395
:101D90001B82DD82CC828E83CE0101960E94970C3D
:101DA00086E0F801A7E6B1E001900D928A95E1F78F
:101DB0000E94480D0E943A0DFF24F3942DCF241366
:101DC000D3CF9313D1CFE110CFCFF8018583C801D2
:101DD0000E94970C86E0F50111928A95E9F71CCFD5
:101DE00024139BCF931399CF80916C0180FD8CCFEE
:101DF000982F907F09F488CFF8018583903F31F0C8
:101E0000982F907F905F8F70892B8583C8010E94E7
:101E1000970C86E0F801A7E6B1E001900D928A9553
:101E2000E1F70E943A0DF8CEF0906901F601E61B49
:101E3000F70BBF01F110D1CE683C710508F07CCFE3
:101E4000FE2CE110CDCFC8010E94970CB5CF1F9397
:101E5000CF93DF93CDB7DEB72C970FB6F894DEBFE4
:101E60000FBECDBF4F83588769877A878B879C8742
:101E7000CE0107960E949E0D882369F08A859B8576
:101E8000892B39F058854F81852F84238F3F09F0A6
:101E900071C016E05FC086E0FE013796DE01119644
:101EA00001900D928A95E1F78F81988520913601F6
:101EB000409135016A857B85672B59F389238F3FD4
:101EC00041F330E0C9010196877099274817190638
:101ED00071F40E94C90C109236011092350186E00F
:101EE000E7E6F1E0DF011D928A95E9F7D2CF96E0AF
:101EF000929FD001939FB00D1124A95CBE4FFE01AB
:101F0000319601900D929A95E1F7809336010E94E7
:101F1000190DBFCF819FC0011124895C9E4F0E9483
:101F20009E0D8823E9F0E09135011E9FF0011124F8
:101F3000E95CFE4F4081518162817381848195818A
:101F40000E94090D8091350190E0019687709927D4
:101F50008093350180913501909136018913DACF54
:101F60002C960FB6F894DEBF0FBECDBFDF91CF9198
:101F70001F91089569857A858B859C850E94090D3E
:101F800088CF08950C94C10F0E94C20F6093800106
:101F90007093810180938201909383010C94BF0C14
:101FA00008950C94C40FCF93DF9300D000D0CDB729
:101FB000DEB769837A838B839C83809180019091C3
:101FC0008101A0918201B091830129813A814B81E5
:101FD0005C81282B392B4A2B5B2B29833A834B833B
:101FE0005C83CA01B9010F900F900F900F90DF91A1
:101FF000CF910C94C40FCF93DF9300D000D0CDB716
:10200000DEB769837A838B839C8380918001909172
:102010008101A0918201B091830129813A814B8194
:102020005C81282339234A235B2329833A834B830A
:102030005C83CA01B9010F900F900F900F90DF9150
:10204000CF910C94C40FCF93DF9300D000D0CDB7C5
:10205000DEB769837A838B839C8380918001909122
:102060008101A0918201B091830129813A814B8144
:102070005C81282739274A275B2729833A834B83AA
:102080005C83CA01B9010F900F900F900F90DF9100
:10209000CF910C94C40F0C94C10F0C944B100E9460
:1020A0004D1060937C0170937D0180937E0190932D
:1020B0007F010C94BF0C60E070E0CB010C944F10DA
:1020C0000F931F93CF93DF9300D000D0CDB7DEB72F
:1020D00041E050E060E070E08A019B0104C0000F25
:1020E000111F221F331F8A95D2F709831A832B836E
:1020F0003C83C901B8010F900F900F900F90DF91B2
:10210000CF911F910F910C944F100F931F93CF936A
:10211000DF9300D000D0CDB7DEB741E050E060E003
:1021200070E004C0440F551F661F771F8A95D2F7D1
:1021300080917C0190917D01A0917E01B0917F0101
:102140008A019B01082B192B2A2B3B2B09831A830D
:102150002B833C83C901B8010F900F900F900F9013
:10216000DF91CF911F910F910C944F100F931F93FC
:10217000CF93DF9300D000D0CDB7DEB741E050E081
:1021800060E070E004C0440F551F661F771F8A95FA
:10219000D2F7409550956095709580917C01909113
:1021A0007D01A0917E01B0917F018A019B010823EE
:1021B00019232A233B2309831A832B833C83C901D8
:1021C000B8010F900F900F900F90DF91CF911F915A
:1021D0000F910C944F100F931F93CF93DF9300D068
:1021E00000D0CDB7DEB741E050E060E070E004C061
:1021F000440F551F661F771F8A95D2F780917C0187
:1022000090917D01A0917E01B0917F018A019B0197
:10221000082719272A273B2709831A832B833C8306
:10222000C901B8010F900F900F900F90DF91CF91DF
:102230001F910F910C944F10CF93DF9300D000D0DB
:10224000CDB7DEB769837A838B839C8380917C01D1
:1022500090917D01A0917E01B0917F0129813A8109
:102260004B815C81282B392B4A2B5B2B29833A83AA
:102270004B835C83CA01B9010F900F900F900F90B0
:10228000DF91CF910C944F10CF93DF9300D000D00B
:10229000CDB7DEB769837A838B839C8380917C0181
:1022A00090917D01A0917E01B0917F0129813A81B9
:1022B0004B815C81282339234A235B2329833A837A
:1022C0004B835C83CA01B9010F900F900F900F9060
:1022D000DF91CF910C944F10CF93DF9300D000D0BB
:1022E000CDB7DEB769837A838B839C8380917C0131
:1022F00090917D01A0917E01B0917F0129813A8169
:102300004B815C81282739274A275B2729833A8319
:102310004B835C83CA01B9010F900F900F900F900F
:10232000DF91CF910C944F100895E92FEE0FE90F34
:10233000EE0FE80F8E2F877041E001C0440F8A95A1
:10234000EAF7E695E695E69585E0E89FF001112429
:10235000E359FE4F30E020E070E05191DF0111972A
:10236000CB01022E02C0969587950A94E2F7817000
:1023700081958527842385278C932F5F3F4F2530B8
:10238000310559F70895E92FEE0FE90FEE0FE80F29
:102390009E2F9770E695E695E69585E0E89FF0011B
:1023A0001124E359FE4F50E040E080E0219130E0FD
:1023B000092E02C0369527950A94E2F7217033273B
:1023C000042E01C0220F0A94EAF7822B4F5F5F4F61
:1023D0004530510559F70895BF92CF92DF92EF92A1
:1023E000FF920F931F93CF93DF938C01C0907C01DA
:1023F000D0907D01E0907E01F0907F01809180017E
:1024000090918101A0918201B0918301C82AD92ABB
:10241000EA2AFB2ACFE1D0E0BC2ED701C6010C2E60
:1024200004C0B695A795979587950A94D2F780FD35
:102430000EC0219788F7B12C8B2DDF91CF911F9182
:102440000F91FF90EF90DF90CF90BF900895B8016B
:102450008C2F0E943D03019761F3EECFCF93DF9362
:10246000D82FC92F0E94EC116D2F7C2FDF91CF91B7
:102470000C943D031F93CF93DF93162FD72F90918A
:102480003401992339F0862F972FDF91CF911F9137
:102490000C942E12882391F0862F972F0E94EC1116
:1024A000C82F682F812F9D2F0E949511612F7D2F9E
:1024B0008C2FDF91CF911F910C943D03862F972F86
:1024C0000E94C311C82FF2CF682F80910001909114
:1024D00001010C945C14682F80910001909101011E
:1024E0000C945E1480910001909101010C94601491
:1024F00080918401859585958595089580918401C5
:102500008770089590918401977081E009F480E0CC
:10251000089590919E0192FB222720F9281751F0EF
:1025200080FB92F990939E0180919D0190919E0174
:102530000C948513089580919E0182FB882780F971
:1025400091E089270C94891281E00C94891280E033
:102550000C94891280919001089590919001982B8C
:10256000909390010895982F9095809190018923E0
:1025700080939001089510929001089590918F0199
:10258000982B90938F010895982F909580918F01AB
:10259000892380938F01089510928F0108951092DE
:1025A0008E01089580918501089508950C94D512A7
:1025B00090919E0192FD08C090918501981721F09D
:1025C000809385010C94D61208958091850188230B
:1025D00029F01092850180E00C94D6120895E091C4
:1025E0000001F0910101809190018083E091000150
:1025F000F0910101808190918F01892B8083E0917E
:102600000001F0910101808190918E01892B8083DE
:1026100090918501992381F0E0910001F0910101F1
:102620008081892B808380910001909101010E941B
:10263000101481110E94E512809100019091010116
:102640000C94280808950C94221390919E0192FDF9
:1026500010C098E0899F90011124622B609384013F
:102660000E948510809184018595859585950C94AF
:1026700023130C9485101092840180E00C94231392
:10268000909184018095892380938401282F27705D
:1026900039F4282F082E000C330B9217130621F45F
:1026A00090919E0192FF07C08595859585950E9422
:1026B000B6100C943B13089580E008956FEF7FEF00
:1026C00090E080E00C94C91B90E080E00E94A51B84
:1026D0009C0181E02A3E3E4F09F080E0089582E0AF
:1026E00090E00C949D1B83E090E00C949D1BCF9395
:1026F00084E090E00E949D1BC82F82E290E00E943F
:102700009D1B982F8C2FCF910895CF93682FC92FA1
:1027100084E090E00E94AB1B6C2F82E290E0CF91AE
:102720000C94AB1BAB01BC018FE090E00C94BD1B83
:10273000AB01BC0183E190E00C94BD1B60E070E054
:10274000CB010C94981360E070E0CB010E949213CF
:102750000C949E136AEE7EEF90E080E00E94C91B0D
:1027600060E082E090E00E94AB1B60E083E090E0DC
:102770000E94AB1B10928001109281011092820185
:102780001092830160E084E090E00E94AB1B60E067
:1027900082E290E00E94AB1B60E085E090E00E9446
:1027A000AB1B60E086E090E00E94AB1B6FEF87E020
:1027B00090E00E94AB1B40E050E0BA0188E090E05E
:1027C0000E94BD1B60E08DE090E00E94AB1B40E0EA
:1027D00050E0BA0188E190E00E94BD1B60E087E113
:1027E00090E00E94AB1B40E050E0BA018CE190E029
:1027F0000E94BD1B70E060E080E290E00E94C91B77
:1028000040E050E0BA0188E190E00E94BD1B0C94CA
:10281000A3130C94AA13682F8EE090E00C94AB1BCA
:10282000AC019C012E5F3F4F485F5F4F80E0241753
:10283000350709F40895F90191919F019923B9F39E
:102840008F5FF5CF9C01662351F0FC013296285F23
:102850003F4F8191861729F0E217F307D1F780E007
:10286000089581E008959C01FC0132968FEF90E07D
:102870004191461751F08F3F19F4411101C0892F42
:102880009F5F9630A9F78F3F09F40895280F311DF7
:1028900087FD3A95F901628308959C01FC01329607
:1028A000285F3F4F8191861303C0DF0111971C926F
:1028B000E217F307B9F708950C9433140C944D14F0
:1028C000FC01329686E0DF011D928A95E9F70895B2
:1028D000089508950C9469148091AF01843049F1F2
:1028E0000E946A1480E00E9421031092920188E104
:1028F00090E020E40FB6F894A895809360000FBE96
:102900002093600083B7817F846083BF83B7816039
:1029100083BF7894889583B78E7F83BF0FB6F89472
:10292000A89580916000886180936000109260009B
:102930000FBE08950895CF930E9468140E94A605C3
:102940000E949A14C0E08C2F0E944A05811105C094
:10295000CF5FC430C1F7CF91089581E0FCCF0895D7
:102960000C94AF140E94C90C0E941C080E94210301
:102970000C94B0141F921FB61F9211248F939F9333
:10298000AF93BF9380919201811113C08091A701F1
:102990009091A801A091A901B091AA014196A11D11
:1029A000B11D8093A7019093A801A093A901B093B2
:1029B000AA01BF91AF919F918F911F901FBE1F9051
:1029C000189582E084BD93E095BD9AEF97BD809302
:1029D0006E0008952FB7F8948091A7019091A801F7
:1029E000A091A901B091AA012FBF0895CF93DF93C1
:1029F00000D000D0CDB7DEB78FB7F8942091A701F3
:102A00003091A8014091A9015091AA0129833A83EC
:102A10004B835C838FBF69817A818B819C810F900E
:102A20000F900F900F90DF91CF9108959C014FB7B9
:102A3000F8948091A7019091A801A091A901B0916B
:102A4000AA014FBF821B930B089578941F921FB663
:102A50001F9211248F939F93AF93BF938091A701EF
:102A60009091A801A091A901B091AA010196A11D80
:102A7000B11D8093A7019093A801A093A901B093E1
:102A8000AA01BF91AF919F918F911F901FBE1F9080
:102A9000189587E797E7909301088093000888E1ED
:102AA0009AE00FB6F894A895809360000FBE9093BB
:102AB0006000FFCF909319018093180108958091D1
:102AC0009B01089508950895CF93DF93D82FC92FC0
:102AD00081E08093E9008FEF9091E800815095FDAF
:102AE00006C095ED9A95F1F700008111F5CF809120
:102AF000E80085FF16C050E040E068E070E08D2FF0
:102B00009C2F0E940C178091E8008E778093E8003C
:102B100088E0ED2FFC2FA3E9B1E001900D928A959A
:102B2000E1F7DF91CF91089508958091AE01811171
:102B300009C00E9494180E94F1188091E2008460FC
:102B40008093E20008951092AE01089508950895CB
:102B5000089542E061EC81E00C9410188091B1017D
:102B6000893089F148F4823009F49DC0833009F43A
:102B700058C0813041F008958A3009F484C08B3008
:102B800009F46AC008958091B001813A09F048C003
:102B90008091E800877F8093E8008091B401909154
:102BA000B501892B61F468E083E991E070E00E944F
:102BB0005B178091E8008B778093E800089560E0D0
:102BC00090E080E0F3CF8091B001813249F58091AF
:102BD000B4019091B501892B19F58091E800877FA8
:102BE0008093E8008091E80082FF16C09091F30086
:102BF0008091F200029729F48091F1008B7F81305F
:102C000021F48091F10080939B018091E8008B7703
:102C10008093E8000C9444188091AF018111E2CFB9
:102C200008958091B001813AD9F78091B4019091D3
:102C3000B501892BA9F78091E800877F8093E80090
:102C40008091E80080FFFCCF80910C018093F1001F
:102C50008091E8008E77DCCF8091B001813201F75E
:102C60008091B4019091B501892BD1F68091E80053
:102C7000877F8093E8000E9444188091B20180937E
:102C80000C010C94C90C8091B001813249F68091FD
:102C9000E800877F8093E8000E9444188091B30188
:102CA00080939C0108958091B001813A09F0B8CFDA
:102CB0008091E800877F8093E8008091E80080FFA2
:102CC000FCCF80919C01C2CF84B7877F84BF0FB6B1
:102CD000F894A895809160008861809360001092BC
:102CE00060000FBE80E890E00FB6F894809361001A
:102CF000909361000FBE0E9480080E9494180E9469
:102D0000F1188091E20084608093E20078940E9440
:102D10007D1B0E94940882E091E00E941708809138
:102D2000AF01853099F00E949A080E949008F7CF71
:102D30000E946C148091AD01882341F00E949B1485
:102D4000882321F00E94F6160E94C90C8091AF01E1
:102D5000853071F30E94B214E6CF0C94AF169C013B
:102D6000FB01DA01832F992783309105B9F060F4D4
:102D700081309105B1F1029761F482E290E021EE99
:102D800031E02D933C93089581329105E1F08297D3
:102D900009F190E080E030E020E0F3CFC90199270D
:102DA000213059F08230910559F0EDEDF1E0892B99
:102DB00081F7849190E09F01E4CFE1EDF1E0F9CF5C
:102DC000E9EBF1E0F6CF89E090E023EF31E0EF2B83
:102DD00001F7D7CF80E490E025E132E0EF2BC9F690
:102DE000D0CF82E190E023E032E0CBCF80E189BD1B
:102DF00082E189BD09B400FEFDCF8091D8008F7DAE
:102E00008093D8008091E00082608093E000809100
:102E1000E00081FDFCCF0895AF92BF92CF92DF9288
:102E2000FF920F931F93CF93DF936C01EB018A0105
:102E30000E946318F82E811123C00115110539F085
:102E4000F80180819181C81BD90BC80ED91EB12C05
:102E5000A12C2097A9F08091E80085FD22C08091E7
:102E6000E8008E778093E80001151105A1F0F801C4
:102E7000808191818A0D9B1D9183808385E0F82E4E
:102E80008F2DDF91CF911F910F91FF90DF90CF9009
:102E9000BF90AF9008950E9463188823D1F2F82E56
:102EA000EFCFF60181916F018093F1002197FFEF41
:102EB000AF1ABF0ACECFFC01CB012091B6013091F1
:102EC000B7012617370790F0009729F42091E80002
:102ED0002E772093E80040E0009751F4411108C09C
:102EE0008091E80082FF31C080E00895C901F3CFEE
:102EF0002091AF012223A9F12530A9F12091E8000A
:102F000023FD2DC02091E80022FDEACF2091E800AA
:102F100020FFE2CF3091F3002091F200009719F0EA
:102F20002830310558F041E02830310509F040E003
:102F30002091E8002E772093E800CECF4191409376
:102F4000F10001972F5F3F4FE9CF8091AF018823B8
:102F500041F0853041F08091E80083FFC1CF81E0EE
:102F6000089582E0089583E00895FC01CB0120914B
:102F7000B6013091B7012617370790F0009729F472
:102F80002091E8002E772093E80040E0009751F46C
:102F9000411108C08091E80082FF32C080E00895AE
:102FA000C901F3CF2091AF012223B1F12530B1F156
:102FB0002091E80023FD2EC02091E80022FDEACFF9
:102FC0002091E80020FFE2CF3091F3002091F20041
:102FD000009719F02830310558F041E028303105CC
:102FE00009F040E02091E8002E772093E800CECF52
:102FF00044914093F100319601972F5F3F4FE8CF06
:103000008091AF01882341F0853041F08091E80044
:1030100083FFC0CF81E0089582E0089583E00895A2
:10302000982F973028F08F708093E90081E0089501
:103030009093E900242F762F50E0981731F070918B
:10304000EC002091ED005091F00021FD02C09F5F47
:10305000E8CF3091EB003E7F3093EB003091ED00F4
:103060003D7F3093ED003091EB0031603093EB0009
:103070007093EC002093ED005093F0002091EE004F
:1030800027FDE5CF80E008958091B00187FF13C050
:103090008091E80082FF06C08091E8008B778093E2
:1030A000E80004C08091AF018111F2CF08958091B2
:1030B000AF018823D9F38091E80080FFF8CF809199
:1030C000E8008E77ECCF2091E4003091E50095E6A2
:1030D000A9012091EC00822F817020FF06C0809111
:1030E000E80080FF06C080E008952091E80022FDFE
:1030F0001AC08091AF01882389F0853089F08091D2
:10310000EB0085FD0FC02091E4003091E5004217EF
:103110005307F9F29150E1F684E0089582E00895B2
:1031200083E0089581E008950E9402190E940A191F
:10313000E0EEF0E0808181608083E8EDF0E0808166
:103140008F77808319BCA7EDB0E08C918E7F8C9334
:1031500080818F7E80831092AE0108950F931F931C
:10316000CF93DF930E9402190E940A19C8EDD0E0A4
:1031700088818F77888388818068888388818F7D24
:10318000888319BC1092AF011092AB011092AD016F
:103190001092AC0100EE10E0F80180818B7F8083FB
:1031A00088818160888342E060E080E00E9410189E
:1031B000E1EEF0E080818E7F8083E2EEF0E08081BE
:1031C00081608083808188608083F80180818E7F28
:1031D0008083888180618883DF91CF911F910F91D7
:1031E0000895E8EDF0E080818F7E8083E7EDF0E0E8
:1031F00080818160808384E082BF81E08093AE0122
:103200000C94AE18E8EDF0E080818E7F8083109200
:10321000E20008951092DA001092E10008951F92E2
:103220000F920FB60F9211242F933F934F935F93FA
:103230006F937F938F939F93AF93BF93EF93FF937E
:103240008091E10082FF0BC08091E20082FF07C005
:103250008091E1008B7F8093E1000E947C1B809134
:10326000DA0080FF19C08091D80080FF15C08091DE
:10327000DA008E7F8093DA008091D90080FF94C0BD
:1032800080E189BD82E189BD09B400FEFDCF81E006
:103290008093AF010E9495158091E10080FF19C0D5
:1032A0008091E20080FF15C08091E2008E7F8093C4
:1032B000E2008091E20080618093E2008091D8007A
:1032C00080628093D80019BC85E08093AF010E9492
:1032D000A7158091E10084FF29C08091E20084FF5E
:1032E00025C080E189BD82E189BD09B400FEFDCF22
:1032F0008091D8008F7D8093D8008091E1008F7EEF
:103300008093E1008091E2008F7E8093E2008091C3
:10331000E20081608093E2008091AB01882309F490
:1033200049C084E08093AF010E94A8158091E1001C
:1033300083FF29C08091E20083FF25C08091E100D6
:10334000877F8093E10082E08093AF011092AB0110
:103350008091E1008E7F8093E1008091E2008E7F7A
:103360008093E2008091E20080618093E20042E07D
:1033700060E080E00E9410188091F00088608093E7
:10338000F0000E94A615FF91EF91BF91AF919F9120
:103390008F917F916F915F914F913F912F910F90FE
:1033A0000FBE0F901F90189519BC1092AF010E948C
:1033B000A31572CF8091E30087FD02C081E0B2CFF8
:1033C00083E0B0CF1F920F920FB60F921124FF929D
:1033D0000F931F932F933F934F935F936F937F931D
:1033E0008F939F93AF93BF93CF93DF93EF93FF930D
:1033F00009EE10E0F8018081C091EC00C795CC2760
:10340000C7958F70FC2EF82A1082C0EFD0E088811B
:10341000877F888378940E942B1AF8011082888114
:1034200088608883CF2DCF70C083FF91EF91DF91AB
:10343000CF91BF91AF919F918F917F916F915F914C
:103440004F913F912F911F910F91FF900F900FBEC1
:103450000F901F9018951F93CF93DF93CDB7DEB7D2
:10346000AA970FB6F894DEBF0FBECDBF80EB91E0F8
:10347000FC0101962091F100208321E0883B920716
:10348000B9F70E94AE158091E80083FF1DC18091BD
:10349000B0019091B1019A3008F016C1E92FF0E027
:1034A000E450F44E0C94971B803899F0823809F060
:1034B0000BC18091B4018F70873008F005C18093F3
:1034C000E9008091EB0085FB882780F91092E900E4
:1034D00006C08091AC019091AD01911182609091F4
:1034E000E800977F9093E8008093F1001092F1003C
:1034F0008091E8008E77E4C0882309F4D2C082303E
:1035000009F0E2C08091B2018111D5C08091B4016F
:103510008F702FEF280F263008F0D6C08093E90077
:103520002091EB0020FFC7C0933031F48091EB0075
:1035300080628093EB00BFC09091EB00906190930C
:10354000EB0021E030E001C0220F8A95EAF72093DA
:10355000EA001092EA008091EB008860EACF8111C6
:10356000B3C01091B2011F778091E3008078812B66
:103570008093E3008091E800877F8093E8000E94B9
:1035800044188091E80080FFFCCF8091E3008068C0
:103590008093E30082E0111183E08093AF0194C037
:1035A0008058823008F090C08091B2019091B301B0
:1035B0008C3D23E0920799F583E08A838AE2898330
:1035C0004FB7F894DE01139620E03EE051E2E32F7E
:1035D000F0E050935700849120FF03C082958F70D4
:1035E0003F5F8F708A30C8F0895C90E08D939D9327
:1035F0002F5F243161F74FBF8091E800877F809370
:10360000E8006AE270E0CE0101960E945B178091AB
:10361000E8008B778093E80057C0805DE6CF60912B
:10362000B4017091B501AE014F5F5F4F0E94AD16BE
:10363000BC01892B09F448C08091E800877F809302
:10364000E80089819A810E94B517E1CF8038E1F5C1
:103650008091E800877F8093E8008091AB018093A0
:10366000F10046CF811130C09091B201923060F5E7
:103670008091E800877F8093E8009093AB010E94DF
:1036800044188091AB01882311F084E005C080913B
:10369000E30087FDFACF81E08093AF010E94A91576
:1036A00013C08091B201813079F481E0933009F048
:1036B00080E08093AD011092E9008091E800877F5F
:1036C0008093E8000E9444188091E80083FF0AC0BC
:1036D0008091E800877F8093E8008091EB00806212
:1036E0008093EB00AA960FB6F894DEBF0FBECDBF55
:1036F000DF91CF911F9108950895CF938091AF01ED
:10370000882399F08091E900C091EC00C795CC27FF
:10371000C7958F70C82B1092E9008091E80083FD57
:103720000E942B1ACF70C093E900CF910895EE0F3D
:10373000FF1F0590F491E02D0994F999FECF92BDF9
:1037400081BDF89A992780B50895A8E1B0E042E0DC
:1037500050E00C94D11B262FF999FECF92BD81BD6C
:10376000F89A019700B4021639F01FBA20BD0FB6BF
:10377000F894FA9AF99A0FBE08950396272F0E949B
:10378000AC1B0E94AB1B252F0E94AC1B242F0C945A
:10379000AC1B0196272F0E94AC1B0C94AB1BDC01C9
:1037A000CB01FC01F999FECF06C0F2BDE1BDF89A4C
:1037B000319600B40D9241505040B8F70895F894F6
:1037C000FFCF620768076C077A077E0782078607C4
:1037D0008C07940798079C07A007AC07B007B407AD
:1037E000B807BE07DC07C6077607A407A807900737
:1037F000C207D207E507E907541A7C1A641B7C1A32
:0C380000641BAF1AD01A641B261B321B7D
:10380C0086015F15641562156315941501F733F67F
:08381C00313435F5F4323600B9
:00000001FF
